{
	"data": {
		"bytecode": {
			"linkReferences": {},
			"object": "608060405234801561001057600080fd5b506113fb806100206000396000f3fe608060405234801561001057600080fd5b50600436106100935760003560e01c8063bad187a511610066578063bad187a514610158578063c50be50b14610188578063cb429f8a146101bb578063cd78aefb146101eb578063f190262a1461021b57610093565b8063a67e3c3514610098578063ab4108b4146100c8578063acc00456146100f8578063ba535b8e14610128575b600080fd5b6100b260048036038101906100ad9190610ca2565b61024b565b6040516100bf91906110c7565b60405180910390f35b6100e260048036038101906100dd9190610ec6565b61027f565b6040516100ef9190611109565b60405180910390f35b610112600480360381019061010d9190610ec6565b61036f565b60405161011f91906110c7565b60405180910390f35b610142600480360381019061013d9190610d47565b610430565b60405161014f9190611037565b60405180910390f35b610172600480360381019061016d9190610e36565b610463565b60405161017f9190611109565b60405180910390f35b6101a2600480360381019061019d9190610ec6565b61051f565b6040516101b29493929190611052565b60405180910390f35b6101d560048036038101906101d09190610da1565b61072f565b6040516101e29190611109565b60405180910390f35b61020560048036038101906102009190610d47565b610874565b6040516102129190611037565b60405180910390f35b61023560048036038101906102309190610c75565b6108a7565b60405161024291906110c7565b60405180910390f35b6060610256836108a7565b82604051602001610268929190611008565b604051602081830303815290604052905092915050565b600082828681811061029457610293611291565b5b90506020020160208101906102a99190610c48565b73ffffffffffffffffffffffffffffffffffffffff1662fdd58e6001600088815260200190815260200160002060009054906101000a900473ffffffffffffffffffffffffffffffffffffffff16866040518363ffffffff1660e01b815260040161031592919061109e565b60206040518083038186803b15801561032d57600080fd5b505afa158015610341573d6000803e3d6000fd5b505050506040513d601f19601f820116820180604052508101906103659190610d74565b9050949350505050565b606082828681811061038457610383611291565b5b90506020020160208101906103999190610c48565b73ffffffffffffffffffffffffffffffffffffffff1663364410b3856040518263ffffffff1660e01b81526004016103d19190611109565b60006040518083038186803b1580156103e957600080fd5b505afa1580156103fd573d6000803e3d6000fd5b505050506040513d6000823e3d601f19601f820116820180604052508101906104269190610cfe565b9050949350505050565b60006020528060005260406000206000915054906101000a900473ffffffffffffffffffffffffffffffffffffffff1681565b600082828681811061047857610477611291565b5b905060200201602081019061048d9190610c48565b73ffffffffffffffffffffffffffffffffffffffff1663f6d8f2cb856040518263ffffffff1660e01b81526004016104c591906110c7565b60206040518083038186803b1580156104dd57600080fd5b505afa1580156104f1573d6000803e3d6000fd5b505050506040513d601f19601f820116820180604052508101906105159190610d74565b9050949350505050565b600080606060008086868a81811061053a57610539611291565b5b905060200201602081019061054f9190610c48565b9050808173ffffffffffffffffffffffffffffffffffffffff16638da5cb5b6040518163ffffffff1660e01b815260040160206040518083038186803b15801561059857600080fd5b505afa1580156105ac573d6000803e3d6000fd5b505050506040513d601f19601f820116820180604052508101906105d09190610c1b565b8273ffffffffffffffffffffffffffffffffffffffff16630e89341c8b6040518263ffffffff1660e01b81526004016106099190611109565b60006040518083038186803b15801561062157600080fd5b505afa158015610635573d6000803e3d6000fd5b505050506040513d6000823e3d601f19601f8201168201806040525081019061065e9190610cfe565b8373ffffffffffffffffffffffffffffffffffffffff1662fdd58e600160008f815260200190815260200160002060009054906101000a900473ffffffffffffffffffffffffffffffffffffffff168d6040518363ffffffff1660e01b81526004016106cb92919061109e565b60206040518083038186803b1580156106e357600080fd5b505afa1580156106f7573d6000803e3d6000fd5b505050506040513d601f19601f8201168201806040525081019061071b9190610d74565b945094509450945050945094509450949050565b6000806107828787878080601f016020809104026020016040519081016040528093929190818152602001838380828437600081840152601f19601f820116905080830192505050505050508686610463565b905083838881811061079757610796611291565b5b90506020020160208101906107ac9190610c48565b73ffffffffffffffffffffffffffffffffffffffff1662fdd58e600160008a815260200190815260200160002060009054906101000a900473ffffffffffffffffffffffffffffffffffffffff16836040518363ffffffff1660e01b815260040161081892919061109e565b60206040518083038186803b15801561083057600080fd5b505afa158015610844573d6000803e3d6000fd5b505050506040513d601f19601f820116820180604052508101906108689190610d74565b91505095945050505050565b60016020528060005260406000206000915054906101000a900473ffffffffffffffffffffffffffffffffffffffff1681565b60608160028111156108bc576108bb611262565b5b600060028111156108d0576108cf611262565b5b1415610913576040518060400160405280600b81526020017f54454d50455241545552450000000000000000000000000000000000000000008152509050610a21565b81600281111561092657610925611262565b5b6001600281111561093a57610939611262565b5b141561097d576040518060400160405280600881526020017f48554d49444954590000000000000000000000000000000000000000000000008152509050610a21565b8160028111156109905761098f611262565b5b6002808111156109a3576109a2611262565b5b14156109e6576040518060400160405280600881526020017f50524553535552450000000000000000000000000000000000000000000000008152509050610a21565b6040517f08c379a0000000000000000000000000000000000000000000000000000000008152600401610a18906110e9565b60405180910390fd5b919050565b6000610a39610a3484611149565b611124565b905082815260208101848484011115610a5557610a546112fe565b5b610a608482856111ef565b509392505050565b6000610a7b610a7684611149565b611124565b905082815260208101848484011115610a9757610a966112fe565b5b610aa28482856111fe565b509392505050565b600081519050610ab981611370565b92915050565b60008083601f840112610ad557610ad46112f4565b5b8235905067ffffffffffffffff811115610af257610af16112ef565b5b602083019150836020820283011115610b0e57610b0d6112f9565b5b9250929050565b600081359050610b2481611387565b92915050565b600081359050610b398161139e565b92915050565b60008083601f840112610b5557610b546112f4565b5b8235905067ffffffffffffffff811115610b7257610b716112ef565b5b602083019150836001820283011115610b8e57610b8d6112f9565b5b9250929050565b600082601f830112610baa57610ba96112f4565b5b8135610bba848260208601610a26565b91505092915050565b600082601f830112610bd857610bd76112f4565b5b8151610be8848260208601610a68565b91505092915050565b600081359050610c00816113ae565b92915050565b600081519050610c15816113ae565b92915050565b600060208284031215610c3157610c30611308565b5b6000610c3f84828501610aaa565b91505092915050565b600060208284031215610c5e57610c5d611308565b5b6000610c6c84828501610b15565b91505092915050565b600060208284031215610c8b57610c8a611308565b5b6000610c9984828501610b2a565b91505092915050565b60008060408385031215610cb957610cb8611308565b5b6000610cc785828601610b2a565b925050602083013567ffffffffffffffff811115610ce857610ce7611303565b5b610cf485828601610b95565b9150509250929050565b600060208284031215610d1457610d13611308565b5b600082015167ffffffffffffffff811115610d3257610d31611303565b5b610d3e84828501610bc3565b91505092915050565b600060208284031215610d5d57610d5c611308565b5b6000610d6b84828501610bf1565b91505092915050565b600060208284031215610d8a57610d89611308565b5b6000610d9884828501610c06565b91505092915050565b600080600080600060608688031215610dbd57610dbc611308565b5b6000610dcb88828901610bf1565b955050602086013567ffffffffffffffff811115610dec57610deb611303565b5b610df888828901610b3f565b9450945050604086013567ffffffffffffffff811115610e1b57610e1a611303565b5b610e2788828901610abf565b92509250509295509295909350565b60008060008060608587031215610e5057610e4f611308565b5b6000610e5e87828801610bf1565b945050602085013567ffffffffffffffff811115610e7f57610e7e611303565b5b610e8b87828801610b95565b935050604085013567ffffffffffffffff811115610eac57610eab611303565b5b610eb887828801610abf565b925092505092959194509250565b60008060008060608587031215610ee057610edf611308565b5b6000610eee87828801610bf1565b9450506020610eff87828801610bf1565b935050604085013567ffffffffffffffff811115610f2057610f1f611303565b5b610f2c87828801610abf565b925092505092959194509250565b610f43816111a1565b82525050565b6000610f548261117a565b610f5e8185611185565b9350610f6e8185602086016111fe565b610f778161130d565b840191505092915050565b6000610f8d8261117a565b610f978185611196565b9350610fa78185602086016111fe565b80840191505092915050565b6000610fc0601483611185565b9150610fcb8261131e565b602082019050919050565b6000610fe3600183611196565b9150610fee82611347565b600182019050919050565b611002816111e5565b82525050565b60006110148285610f82565b915061101f82610fd6565b915061102b8284610f82565b91508190509392505050565b600060208201905061104c6000830184610f3a565b92915050565b60006080820190506110676000830187610f3a565b6110746020830186610f3a565b81810360408301526110868185610f49565b90506110956060830184610ff9565b95945050505050565b60006040820190506110b36000830185610f3a565b6110c06020830184610ff9565b9392505050565b600060208201905081810360008301526110e18184610f49565b905092915050565b6000602082019050818103600083015261110281610fb3565b9050919050565b600060208201905061111e6000830184610ff9565b92915050565b600061112e61113f565b905061113a8282611231565b919050565b6000604051905090565b600067ffffffffffffffff821115611164576111636112c0565b5b61116d8261130d565b9050602081019050919050565b600081519050919050565b600082825260208201905092915050565b600081905092915050565b60006111ac826111c5565b9050919050565b60006111be826111a1565b9050919050565b600073ffffffffffffffffffffffffffffffffffffffff82169050919050565b6000819050919050565b82818337600083830152505050565b60005b8381101561121c578082015181840152602081019050611201565b8381111561122b576000848401525b50505050565b61123a8261130d565b810181811067ffffffffffffffff82111715611259576112586112c0565b5b80604052505050565b7f4e487b7100000000000000000000000000000000000000000000000000000000600052602160045260246000fd5b7f4e487b7100000000000000000000000000000000000000000000000000000000600052603260045260246000fd5b7f4e487b7100000000000000000000000000000000000000000000000000000000600052604160045260246000fd5b600080fd5b600080fd5b600080fd5b600080fd5b600080fd5b600080fd5b6000601f19601f8301169050919050565b7f53656e736f72206e6f7420737065636966696564000000000000000000000000600082015250565b7f5f00000000000000000000000000000000000000000000000000000000000000600082015250565b611379816111a1565b811461138457600080fd5b50565b611390816111b3565b811461139b57600080fd5b50565b600381106113ab57600080fd5b50565b6113b7816111e5565b81146113c257600080fd5b5056fea26469706673582212200e7c56e19609a55de19c3b4d40b0fe3419be09260db9ac66a68922e8a12d50b564736f6c63430008070033",
			"opcodes": "PUSH1 0x80 PUSH1 0x40 MSTORE CALLVALUE DUP1 ISZERO PUSH2 0x10 JUMPI PUSH1 0x0 DUP1 REVERT JUMPDEST POP PUSH2 0x13FB DUP1 PUSH2 0x20 PUSH1 0x0 CODECOPY PUSH1 0x0 RETURN INVALID PUSH1 0x80 PUSH1 0x40 MSTORE CALLVALUE DUP1 ISZERO PUSH2 0x10 JUMPI PUSH1 0x0 DUP1 REVERT JUMPDEST POP PUSH1 0x4 CALLDATASIZE LT PUSH2 0x93 JUMPI PUSH1 0x0 CALLDATALOAD PUSH1 0xE0 SHR DUP1 PUSH4 0xBAD187A5 GT PUSH2 0x66 JUMPI DUP1 PUSH4 0xBAD187A5 EQ PUSH2 0x158 JUMPI DUP1 PUSH4 0xC50BE50B EQ PUSH2 0x188 JUMPI DUP1 PUSH4 0xCB429F8A EQ PUSH2 0x1BB JUMPI DUP1 PUSH4 0xCD78AEFB EQ PUSH2 0x1EB JUMPI DUP1 PUSH4 0xF190262A EQ PUSH2 0x21B JUMPI PUSH2 0x93 JUMP JUMPDEST DUP1 PUSH4 0xA67E3C35 EQ PUSH2 0x98 JUMPI DUP1 PUSH4 0xAB4108B4 EQ PUSH2 0xC8 JUMPI DUP1 PUSH4 0xACC00456 EQ PUSH2 0xF8 JUMPI DUP1 PUSH4 0xBA535B8E EQ PUSH2 0x128 JUMPI JUMPDEST PUSH1 0x0 DUP1 REVERT JUMPDEST PUSH2 0xB2 PUSH1 0x4 DUP1 CALLDATASIZE SUB DUP2 ADD SWAP1 PUSH2 0xAD SWAP2 SWAP1 PUSH2 0xCA2 JUMP JUMPDEST PUSH2 0x24B JUMP JUMPDEST PUSH1 0x40 MLOAD PUSH2 0xBF SWAP2 SWAP1 PUSH2 0x10C7 JUMP JUMPDEST PUSH1 0x40 MLOAD DUP1 SWAP2 SUB SWAP1 RETURN JUMPDEST PUSH2 0xE2 PUSH1 0x4 DUP1 CALLDATASIZE SUB DUP2 ADD SWAP1 PUSH2 0xDD SWAP2 SWAP1 PUSH2 0xEC6 JUMP JUMPDEST PUSH2 0x27F JUMP JUMPDEST PUSH1 0x40 MLOAD PUSH2 0xEF SWAP2 SWAP1 PUSH2 0x1109 JUMP JUMPDEST PUSH1 0x40 MLOAD DUP1 SWAP2 SUB SWAP1 RETURN JUMPDEST PUSH2 0x112 PUSH1 0x4 DUP1 CALLDATASIZE SUB DUP2 ADD SWAP1 PUSH2 0x10D SWAP2 SWAP1 PUSH2 0xEC6 JUMP JUMPDEST PUSH2 0x36F JUMP JUMPDEST PUSH1 0x40 MLOAD PUSH2 0x11F SWAP2 SWAP1 PUSH2 0x10C7 JUMP JUMPDEST PUSH1 0x40 MLOAD DUP1 SWAP2 SUB SWAP1 RETURN JUMPDEST PUSH2 0x142 PUSH1 0x4 DUP1 CALLDATASIZE SUB DUP2 ADD SWAP1 PUSH2 0x13D SWAP2 SWAP1 PUSH2 0xD47 JUMP JUMPDEST PUSH2 0x430 JUMP JUMPDEST PUSH1 0x40 MLOAD PUSH2 0x14F SWAP2 SWAP1 PUSH2 0x1037 JUMP JUMPDEST PUSH1 0x40 MLOAD DUP1 SWAP2 SUB SWAP1 RETURN JUMPDEST PUSH2 0x172 PUSH1 0x4 DUP1 CALLDATASIZE SUB DUP2 ADD SWAP1 PUSH2 0x16D SWAP2 SWAP1 PUSH2 0xE36 JUMP JUMPDEST PUSH2 0x463 JUMP JUMPDEST PUSH1 0x40 MLOAD PUSH2 0x17F SWAP2 SWAP1 PUSH2 0x1109 JUMP JUMPDEST PUSH1 0x40 MLOAD DUP1 SWAP2 SUB SWAP1 RETURN JUMPDEST PUSH2 0x1A2 PUSH1 0x4 DUP1 CALLDATASIZE SUB DUP2 ADD SWAP1 PUSH2 0x19D SWAP2 SWAP1 PUSH2 0xEC6 JUMP JUMPDEST PUSH2 0x51F JUMP JUMPDEST PUSH1 0x40 MLOAD PUSH2 0x1B2 SWAP5 SWAP4 SWAP3 SWAP2 SWAP1 PUSH2 0x1052 JUMP JUMPDEST PUSH1 0x40 MLOAD DUP1 SWAP2 SUB SWAP1 RETURN JUMPDEST PUSH2 0x1D5 PUSH1 0x4 DUP1 CALLDATASIZE SUB DUP2 ADD SWAP1 PUSH2 0x1D0 SWAP2 SWAP1 PUSH2 0xDA1 JUMP JUMPDEST PUSH2 0x72F JUMP JUMPDEST PUSH1 0x40 MLOAD PUSH2 0x1E2 SWAP2 SWAP1 PUSH2 0x1109 JUMP JUMPDEST PUSH1 0x40 MLOAD DUP1 SWAP2 SUB SWAP1 RETURN JUMPDEST PUSH2 0x205 PUSH1 0x4 DUP1 CALLDATASIZE SUB DUP2 ADD SWAP1 PUSH2 0x200 SWAP2 SWAP1 PUSH2 0xD47 JUMP JUMPDEST PUSH2 0x874 JUMP JUMPDEST PUSH1 0x40 MLOAD PUSH2 0x212 SWAP2 SWAP1 PUSH2 0x1037 JUMP JUMPDEST PUSH1 0x40 MLOAD DUP1 SWAP2 SUB SWAP1 RETURN JUMPDEST PUSH2 0x235 PUSH1 0x4 DUP1 CALLDATASIZE SUB DUP2 ADD SWAP1 PUSH2 0x230 SWAP2 SWAP1 PUSH2 0xC75 JUMP JUMPDEST PUSH2 0x8A7 JUMP JUMPDEST PUSH1 0x40 MLOAD PUSH2 0x242 SWAP2 SWAP1 PUSH2 0x10C7 JUMP JUMPDEST PUSH1 0x40 MLOAD DUP1 SWAP2 SUB SWAP1 RETURN JUMPDEST PUSH1 0x60 PUSH2 0x256 DUP4 PUSH2 0x8A7 JUMP JUMPDEST DUP3 PUSH1 0x40 MLOAD PUSH1 0x20 ADD PUSH2 0x268 SWAP3 SWAP2 SWAP1 PUSH2 0x1008 JUMP JUMPDEST PUSH1 0x40 MLOAD PUSH1 0x20 DUP2 DUP4 SUB SUB DUP2 MSTORE SWAP1 PUSH1 0x40 MSTORE SWAP1 POP SWAP3 SWAP2 POP POP JUMP JUMPDEST PUSH1 0x0 DUP3 DUP3 DUP7 DUP2 DUP2 LT PUSH2 0x294 JUMPI PUSH2 0x293 PUSH2 0x1291 JUMP JUMPDEST JUMPDEST SWAP1 POP PUSH1 0x20 MUL ADD PUSH1 0x20 DUP2 ADD SWAP1 PUSH2 0x2A9 SWAP2 SWAP1 PUSH2 0xC48 JUMP JUMPDEST PUSH20 0xFFFFFFFFFFFFFFFFFFFFFFFFFFFFFFFFFFFFFFFF AND PUSH3 0xFDD58E PUSH1 0x1 PUSH1 0x0 DUP9 DUP2 MSTORE PUSH1 0x20 ADD SWAP1 DUP2 MSTORE PUSH1 0x20 ADD PUSH1 0x0 KECCAK256 PUSH1 0x0 SWAP1 SLOAD SWAP1 PUSH2 0x100 EXP SWAP1 DIV PUSH20 0xFFFFFFFFFFFFFFFFFFFFFFFFFFFFFFFFFFFFFFFF AND DUP7 PUSH1 0x40 MLOAD DUP4 PUSH4 0xFFFFFFFF AND PUSH1 0xE0 SHL DUP2 MSTORE PUSH1 0x4 ADD PUSH2 0x315 SWAP3 SWAP2 SWAP1 PUSH2 0x109E JUMP JUMPDEST PUSH1 0x20 PUSH1 0x40 MLOAD DUP1 DUP4 SUB DUP2 DUP7 DUP1 EXTCODESIZE ISZERO DUP1 ISZERO PUSH2 0x32D JUMPI PUSH1 0x0 DUP1 REVERT JUMPDEST POP GAS STATICCALL ISZERO DUP1 ISZERO PUSH2 0x341 JUMPI RETURNDATASIZE PUSH1 0x0 DUP1 RETURNDATACOPY RETURNDATASIZE PUSH1 0x0 REVERT JUMPDEST POP POP POP POP PUSH1 0x40 MLOAD RETURNDATASIZE PUSH1 0x1F NOT PUSH1 0x1F DUP3 ADD AND DUP3 ADD DUP1 PUSH1 0x40 MSTORE POP DUP2 ADD SWAP1 PUSH2 0x365 SWAP2 SWAP1 PUSH2 0xD74 JUMP JUMPDEST SWAP1 POP SWAP5 SWAP4 POP POP POP POP JUMP JUMPDEST PUSH1 0x60 DUP3 DUP3 DUP7 DUP2 DUP2 LT PUSH2 0x384 JUMPI PUSH2 0x383 PUSH2 0x1291 JUMP JUMPDEST JUMPDEST SWAP1 POP PUSH1 0x20 MUL ADD PUSH1 0x20 DUP2 ADD SWAP1 PUSH2 0x399 SWAP2 SWAP1 PUSH2 0xC48 JUMP JUMPDEST PUSH20 0xFFFFFFFFFFFFFFFFFFFFFFFFFFFFFFFFFFFFFFFF AND PUSH4 0x364410B3 DUP6 PUSH1 0x40 MLOAD DUP3 PUSH4 0xFFFFFFFF AND PUSH1 0xE0 SHL DUP2 MSTORE PUSH1 0x4 ADD PUSH2 0x3D1 SWAP2 SWAP1 PUSH2 0x1109 JUMP JUMPDEST PUSH1 0x0 PUSH1 0x40 MLOAD DUP1 DUP4 SUB DUP2 DUP7 DUP1 EXTCODESIZE ISZERO DUP1 ISZERO PUSH2 0x3E9 JUMPI PUSH1 0x0 DUP1 REVERT JUMPDEST POP GAS STATICCALL ISZERO DUP1 ISZERO PUSH2 0x3FD JUMPI RETURNDATASIZE PUSH1 0x0 DUP1 RETURNDATACOPY RETURNDATASIZE PUSH1 0x0 REVERT JUMPDEST POP POP POP POP PUSH1 0x40 MLOAD RETURNDATASIZE PUSH1 0x0 DUP3 RETURNDATACOPY RETURNDATASIZE PUSH1 0x1F NOT PUSH1 0x1F DUP3 ADD AND DUP3 ADD DUP1 PUSH1 0x40 MSTORE POP DUP2 ADD SWAP1 PUSH2 0x426 SWAP2 SWAP1 PUSH2 0xCFE JUMP JUMPDEST SWAP1 POP SWAP5 SWAP4 POP POP POP POP JUMP JUMPDEST PUSH1 0x0 PUSH1 0x20 MSTORE DUP1 PUSH1 0x0 MSTORE PUSH1 0x40 PUSH1 0x0 KECCAK256 PUSH1 0x0 SWAP2 POP SLOAD SWAP1 PUSH2 0x100 EXP SWAP1 DIV PUSH20 0xFFFFFFFFFFFFFFFFFFFFFFFFFFFFFFFFFFFFFFFF AND DUP2 JUMP JUMPDEST PUSH1 0x0 DUP3 DUP3 DUP7 DUP2 DUP2 LT PUSH2 0x478 JUMPI PUSH2 0x477 PUSH2 0x1291 JUMP JUMPDEST JUMPDEST SWAP1 POP PUSH1 0x20 MUL ADD PUSH1 0x20 DUP2 ADD SWAP1 PUSH2 0x48D SWAP2 SWAP1 PUSH2 0xC48 JUMP JUMPDEST PUSH20 0xFFFFFFFFFFFFFFFFFFFFFFFFFFFFFFFFFFFFFFFF AND PUSH4 0xF6D8F2CB DUP6 PUSH1 0x40 MLOAD DUP3 PUSH4 0xFFFFFFFF AND PUSH1 0xE0 SHL DUP2 MSTORE PUSH1 0x4 ADD PUSH2 0x4C5 SWAP2 SWAP1 PUSH2 0x10C7 JUMP JUMPDEST PUSH1 0x20 PUSH1 0x40 MLOAD DUP1 DUP4 SUB DUP2 DUP7 DUP1 EXTCODESIZE ISZERO DUP1 ISZERO PUSH2 0x4DD JUMPI PUSH1 0x0 DUP1 REVERT JUMPDEST POP GAS STATICCALL ISZERO DUP1 ISZERO PUSH2 0x4F1 JUMPI RETURNDATASIZE PUSH1 0x0 DUP1 RETURNDATACOPY RETURNDATASIZE PUSH1 0x0 REVERT JUMPDEST POP POP POP POP PUSH1 0x40 MLOAD RETURNDATASIZE PUSH1 0x1F NOT PUSH1 0x1F DUP3 ADD AND DUP3 ADD DUP1 PUSH1 0x40 MSTORE POP DUP2 ADD SWAP1 PUSH2 0x515 SWAP2 SWAP1 PUSH2 0xD74 JUMP JUMPDEST SWAP1 POP SWAP5 SWAP4 POP POP POP POP JUMP JUMPDEST PUSH1 0x0 DUP1 PUSH1 0x60 PUSH1 0x0 DUP1 DUP7 DUP7 DUP11 DUP2 DUP2 LT PUSH2 0x53A JUMPI PUSH2 0x539 PUSH2 0x1291 JUMP JUMPDEST JUMPDEST SWAP1 POP PUSH1 0x20 MUL ADD PUSH1 0x20 DUP2 ADD SWAP1 PUSH2 0x54F SWAP2 SWAP1 PUSH2 0xC48 JUMP JUMPDEST SWAP1 POP DUP1 DUP2 PUSH20 0xFFFFFFFFFFFFFFFFFFFFFFFFFFFFFFFFFFFFFFFF AND PUSH4 0x8DA5CB5B PUSH1 0x40 MLOAD DUP2 PUSH4 0xFFFFFFFF AND PUSH1 0xE0 SHL DUP2 MSTORE PUSH1 0x4 ADD PUSH1 0x20 PUSH1 0x40 MLOAD DUP1 DUP4 SUB DUP2 DUP7 DUP1 EXTCODESIZE ISZERO DUP1 ISZERO PUSH2 0x598 JUMPI PUSH1 0x0 DUP1 REVERT JUMPDEST POP GAS STATICCALL ISZERO DUP1 ISZERO PUSH2 0x5AC JUMPI RETURNDATASIZE PUSH1 0x0 DUP1 RETURNDATACOPY RETURNDATASIZE PUSH1 0x0 REVERT JUMPDEST POP POP POP POP PUSH1 0x40 MLOAD RETURNDATASIZE PUSH1 0x1F NOT PUSH1 0x1F DUP3 ADD AND DUP3 ADD DUP1 PUSH1 0x40 MSTORE POP DUP2 ADD SWAP1 PUSH2 0x5D0 SWAP2 SWAP1 PUSH2 0xC1B JUMP JUMPDEST DUP3 PUSH20 0xFFFFFFFFFFFFFFFFFFFFFFFFFFFFFFFFFFFFFFFF AND PUSH4 0xE89341C DUP12 PUSH1 0x40 MLOAD DUP3 PUSH4 0xFFFFFFFF AND PUSH1 0xE0 SHL DUP2 MSTORE PUSH1 0x4 ADD PUSH2 0x609 SWAP2 SWAP1 PUSH2 0x1109 JUMP JUMPDEST PUSH1 0x0 PUSH1 0x40 MLOAD DUP1 DUP4 SUB DUP2 DUP7 DUP1 EXTCODESIZE ISZERO DUP1 ISZERO PUSH2 0x621 JUMPI PUSH1 0x0 DUP1 REVERT JUMPDEST POP GAS STATICCALL ISZERO DUP1 ISZERO PUSH2 0x635 JUMPI RETURNDATASIZE PUSH1 0x0 DUP1 RETURNDATACOPY RETURNDATASIZE PUSH1 0x0 REVERT JUMPDEST POP POP POP POP PUSH1 0x40 MLOAD RETURNDATASIZE PUSH1 0x0 DUP3 RETURNDATACOPY RETURNDATASIZE PUSH1 0x1F NOT PUSH1 0x1F DUP3 ADD AND DUP3 ADD DUP1 PUSH1 0x40 MSTORE POP DUP2 ADD SWAP1 PUSH2 0x65E SWAP2 SWAP1 PUSH2 0xCFE JUMP JUMPDEST DUP4 PUSH20 0xFFFFFFFFFFFFFFFFFFFFFFFFFFFFFFFFFFFFFFFF AND PUSH3 0xFDD58E PUSH1 0x1 PUSH1 0x0 DUP16 DUP2 MSTORE PUSH1 0x20 ADD SWAP1 DUP2 MSTORE PUSH1 0x20 ADD PUSH1 0x0 KECCAK256 PUSH1 0x0 SWAP1 SLOAD SWAP1 PUSH2 0x100 EXP SWAP1 DIV PUSH20 0xFFFFFFFFFFFFFFFFFFFFFFFFFFFFFFFFFFFFFFFF AND DUP14 PUSH1 0x40 MLOAD DUP4 PUSH4 0xFFFFFFFF AND PUSH1 0xE0 SHL DUP2 MSTORE PUSH1 0x4 ADD PUSH2 0x6CB SWAP3 SWAP2 SWAP1 PUSH2 0x109E JUMP JUMPDEST PUSH1 0x20 PUSH1 0x40 MLOAD DUP1 DUP4 SUB DUP2 DUP7 DUP1 EXTCODESIZE ISZERO DUP1 ISZERO PUSH2 0x6E3 JUMPI PUSH1 0x0 DUP1 REVERT JUMPDEST POP GAS STATICCALL ISZERO DUP1 ISZERO PUSH2 0x6F7 JUMPI RETURNDATASIZE PUSH1 0x0 DUP1 RETURNDATACOPY RETURNDATASIZE PUSH1 0x0 REVERT JUMPDEST POP POP POP POP PUSH1 0x40 MLOAD RETURNDATASIZE PUSH1 0x1F NOT PUSH1 0x1F DUP3 ADD AND DUP3 ADD DUP1 PUSH1 0x40 MSTORE POP DUP2 ADD SWAP1 PUSH2 0x71B SWAP2 SWAP1 PUSH2 0xD74 JUMP JUMPDEST SWAP5 POP SWAP5 POP SWAP5 POP SWAP5 POP POP SWAP5 POP SWAP5 POP SWAP5 POP SWAP5 SWAP1 POP JUMP JUMPDEST PUSH1 0x0 DUP1 PUSH2 0x782 DUP8 DUP8 DUP8 DUP1 DUP1 PUSH1 0x1F ADD PUSH1 0x20 DUP1 SWAP2 DIV MUL PUSH1 0x20 ADD PUSH1 0x40 MLOAD SWAP1 DUP2 ADD PUSH1 0x40 MSTORE DUP1 SWAP4 SWAP3 SWAP2 SWAP1 DUP2 DUP2 MSTORE PUSH1 0x20 ADD DUP4 DUP4 DUP1 DUP3 DUP5 CALLDATACOPY PUSH1 0x0 DUP2 DUP5 ADD MSTORE PUSH1 0x1F NOT PUSH1 0x1F DUP3 ADD AND SWAP1 POP DUP1 DUP4 ADD SWAP3 POP POP POP POP POP POP POP DUP7 DUP7 PUSH2 0x463 JUMP JUMPDEST SWAP1 POP DUP4 DUP4 DUP9 DUP2 DUP2 LT PUSH2 0x797 JUMPI PUSH2 0x796 PUSH2 0x1291 JUMP JUMPDEST JUMPDEST SWAP1 POP PUSH1 0x20 MUL ADD PUSH1 0x20 DUP2 ADD SWAP1 PUSH2 0x7AC SWAP2 SWAP1 PUSH2 0xC48 JUMP JUMPDEST PUSH20 0xFFFFFFFFFFFFFFFFFFFFFFFFFFFFFFFFFFFFFFFF AND PUSH3 0xFDD58E PUSH1 0x1 PUSH1 0x0 DUP11 DUP2 MSTORE PUSH1 0x20 ADD SWAP1 DUP2 MSTORE PUSH1 0x20 ADD PUSH1 0x0 KECCAK256 PUSH1 0x0 SWAP1 SLOAD SWAP1 PUSH2 0x100 EXP SWAP1 DIV PUSH20 0xFFFFFFFFFFFFFFFFFFFFFFFFFFFFFFFFFFFFFFFF AND DUP4 PUSH1 0x40 MLOAD DUP4 PUSH4 0xFFFFFFFF AND PUSH1 0xE0 SHL DUP2 MSTORE PUSH1 0x4 ADD PUSH2 0x818 SWAP3 SWAP2 SWAP1 PUSH2 0x109E JUMP JUMPDEST PUSH1 0x20 PUSH1 0x40 MLOAD DUP1 DUP4 SUB DUP2 DUP7 DUP1 EXTCODESIZE ISZERO DUP1 ISZERO PUSH2 0x830 JUMPI PUSH1 0x0 DUP1 REVERT JUMPDEST POP GAS STATICCALL ISZERO DUP1 ISZERO PUSH2 0x844 JUMPI RETURNDATASIZE PUSH1 0x0 DUP1 RETURNDATACOPY RETURNDATASIZE PUSH1 0x0 REVERT JUMPDEST POP POP POP POP PUSH1 0x40 MLOAD RETURNDATASIZE PUSH1 0x1F NOT PUSH1 0x1F DUP3 ADD AND DUP3 ADD DUP1 PUSH1 0x40 MSTORE POP DUP2 ADD SWAP1 PUSH2 0x868 SWAP2 SWAP1 PUSH2 0xD74 JUMP JUMPDEST SWAP2 POP POP SWAP6 SWAP5 POP POP POP POP POP JUMP JUMPDEST PUSH1 0x1 PUSH1 0x20 MSTORE DUP1 PUSH1 0x0 MSTORE PUSH1 0x40 PUSH1 0x0 KECCAK256 PUSH1 0x0 SWAP2 POP SLOAD SWAP1 PUSH2 0x100 EXP SWAP1 DIV PUSH20 0xFFFFFFFFFFFFFFFFFFFFFFFFFFFFFFFFFFFFFFFF AND DUP2 JUMP JUMPDEST PUSH1 0x60 DUP2 PUSH1 0x2 DUP2 GT ISZERO PUSH2 0x8BC JUMPI PUSH2 0x8BB PUSH2 0x1262 JUMP JUMPDEST JUMPDEST PUSH1 0x0 PUSH1 0x2 DUP2 GT ISZERO PUSH2 0x8D0 JUMPI PUSH2 0x8CF PUSH2 0x1262 JUMP JUMPDEST JUMPDEST EQ ISZERO PUSH2 0x913 JUMPI PUSH1 0x40 MLOAD DUP1 PUSH1 0x40 ADD PUSH1 0x40 MSTORE DUP1 PUSH1 0xB DUP2 MSTORE PUSH1 0x20 ADD PUSH32 0x54454D5045524154555245000000000000000000000000000000000000000000 DUP2 MSTORE POP SWAP1 POP PUSH2 0xA21 JUMP JUMPDEST DUP2 PUSH1 0x2 DUP2 GT ISZERO PUSH2 0x926 JUMPI PUSH2 0x925 PUSH2 0x1262 JUMP JUMPDEST JUMPDEST PUSH1 0x1 PUSH1 0x2 DUP2 GT ISZERO PUSH2 0x93A JUMPI PUSH2 0x939 PUSH2 0x1262 JUMP JUMPDEST JUMPDEST EQ ISZERO PUSH2 0x97D JUMPI PUSH1 0x40 MLOAD DUP1 PUSH1 0x40 ADD PUSH1 0x40 MSTORE DUP1 PUSH1 0x8 DUP2 MSTORE PUSH1 0x20 ADD PUSH32 0x48554D4944495459000000000000000000000000000000000000000000000000 DUP2 MSTORE POP SWAP1 POP PUSH2 0xA21 JUMP JUMPDEST DUP2 PUSH1 0x2 DUP2 GT ISZERO PUSH2 0x990 JUMPI PUSH2 0x98F PUSH2 0x1262 JUMP JUMPDEST JUMPDEST PUSH1 0x2 DUP1 DUP2 GT ISZERO PUSH2 0x9A3 JUMPI PUSH2 0x9A2 PUSH2 0x1262 JUMP JUMPDEST JUMPDEST EQ ISZERO PUSH2 0x9E6 JUMPI PUSH1 0x40 MLOAD DUP1 PUSH1 0x40 ADD PUSH1 0x40 MSTORE DUP1 PUSH1 0x8 DUP2 MSTORE PUSH1 0x20 ADD PUSH32 0x5052455353555245000000000000000000000000000000000000000000000000 DUP2 MSTORE POP SWAP1 POP PUSH2 0xA21 JUMP JUMPDEST PUSH1 0x40 MLOAD PUSH32 0x8C379A000000000000000000000000000000000000000000000000000000000 DUP2 MSTORE PUSH1 0x4 ADD PUSH2 0xA18 SWAP1 PUSH2 0x10E9 JUMP JUMPDEST PUSH1 0x40 MLOAD DUP1 SWAP2 SUB SWAP1 REVERT JUMPDEST SWAP2 SWAP1 POP JUMP JUMPDEST PUSH1 0x0 PUSH2 0xA39 PUSH2 0xA34 DUP5 PUSH2 0x1149 JUMP JUMPDEST PUSH2 0x1124 JUMP JUMPDEST SWAP1 POP DUP3 DUP2 MSTORE PUSH1 0x20 DUP2 ADD DUP5 DUP5 DUP5 ADD GT ISZERO PUSH2 0xA55 JUMPI PUSH2 0xA54 PUSH2 0x12FE JUMP JUMPDEST JUMPDEST PUSH2 0xA60 DUP5 DUP3 DUP6 PUSH2 0x11EF JUMP JUMPDEST POP SWAP4 SWAP3 POP POP POP JUMP JUMPDEST PUSH1 0x0 PUSH2 0xA7B PUSH2 0xA76 DUP5 PUSH2 0x1149 JUMP JUMPDEST PUSH2 0x1124 JUMP JUMPDEST SWAP1 POP DUP3 DUP2 MSTORE PUSH1 0x20 DUP2 ADD DUP5 DUP5 DUP5 ADD GT ISZERO PUSH2 0xA97 JUMPI PUSH2 0xA96 PUSH2 0x12FE JUMP JUMPDEST JUMPDEST PUSH2 0xAA2 DUP5 DUP3 DUP6 PUSH2 0x11FE JUMP JUMPDEST POP SWAP4 SWAP3 POP POP POP JUMP JUMPDEST PUSH1 0x0 DUP2 MLOAD SWAP1 POP PUSH2 0xAB9 DUP2 PUSH2 0x1370 JUMP JUMPDEST SWAP3 SWAP2 POP POP JUMP JUMPDEST PUSH1 0x0 DUP1 DUP4 PUSH1 0x1F DUP5 ADD SLT PUSH2 0xAD5 JUMPI PUSH2 0xAD4 PUSH2 0x12F4 JUMP JUMPDEST JUMPDEST DUP3 CALLDATALOAD SWAP1 POP PUSH8 0xFFFFFFFFFFFFFFFF DUP2 GT ISZERO PUSH2 0xAF2 JUMPI PUSH2 0xAF1 PUSH2 0x12EF JUMP JUMPDEST JUMPDEST PUSH1 0x20 DUP4 ADD SWAP2 POP DUP4 PUSH1 0x20 DUP3 MUL DUP4 ADD GT ISZERO PUSH2 0xB0E JUMPI PUSH2 0xB0D PUSH2 0x12F9 JUMP JUMPDEST JUMPDEST SWAP3 POP SWAP3 SWAP1 POP JUMP JUMPDEST PUSH1 0x0 DUP2 CALLDATALOAD SWAP1 POP PUSH2 0xB24 DUP2 PUSH2 0x1387 JUMP JUMPDEST SWAP3 SWAP2 POP POP JUMP JUMPDEST PUSH1 0x0 DUP2 CALLDATALOAD SWAP1 POP PUSH2 0xB39 DUP2 PUSH2 0x139E JUMP JUMPDEST SWAP3 SWAP2 POP POP JUMP JUMPDEST PUSH1 0x0 DUP1 DUP4 PUSH1 0x1F DUP5 ADD SLT PUSH2 0xB55 JUMPI PUSH2 0xB54 PUSH2 0x12F4 JUMP JUMPDEST JUMPDEST DUP3 CALLDATALOAD SWAP1 POP PUSH8 0xFFFFFFFFFFFFFFFF DUP2 GT ISZERO PUSH2 0xB72 JUMPI PUSH2 0xB71 PUSH2 0x12EF JUMP JUMPDEST JUMPDEST PUSH1 0x20 DUP4 ADD SWAP2 POP DUP4 PUSH1 0x1 DUP3 MUL DUP4 ADD GT ISZERO PUSH2 0xB8E JUMPI PUSH2 0xB8D PUSH2 0x12F9 JUMP JUMPDEST JUMPDEST SWAP3 POP SWAP3 SWAP1 POP JUMP JUMPDEST PUSH1 0x0 DUP3 PUSH1 0x1F DUP4 ADD SLT PUSH2 0xBAA JUMPI PUSH2 0xBA9 PUSH2 0x12F4 JUMP JUMPDEST JUMPDEST DUP2 CALLDATALOAD PUSH2 0xBBA DUP5 DUP3 PUSH1 0x20 DUP7 ADD PUSH2 0xA26 JUMP JUMPDEST SWAP2 POP POP SWAP3 SWAP2 POP POP JUMP JUMPDEST PUSH1 0x0 DUP3 PUSH1 0x1F DUP4 ADD SLT PUSH2 0xBD8 JUMPI PUSH2 0xBD7 PUSH2 0x12F4 JUMP JUMPDEST JUMPDEST DUP2 MLOAD PUSH2 0xBE8 DUP5 DUP3 PUSH1 0x20 DUP7 ADD PUSH2 0xA68 JUMP JUMPDEST SWAP2 POP POP SWAP3 SWAP2 POP POP JUMP JUMPDEST PUSH1 0x0 DUP2 CALLDATALOAD SWAP1 POP PUSH2 0xC00 DUP2 PUSH2 0x13AE JUMP JUMPDEST SWAP3 SWAP2 POP POP JUMP JUMPDEST PUSH1 0x0 DUP2 MLOAD SWAP1 POP PUSH2 0xC15 DUP2 PUSH2 0x13AE JUMP JUMPDEST SWAP3 SWAP2 POP POP JUMP JUMPDEST PUSH1 0x0 PUSH1 0x20 DUP3 DUP5 SUB SLT ISZERO PUSH2 0xC31 JUMPI PUSH2 0xC30 PUSH2 0x1308 JUMP JUMPDEST JUMPDEST PUSH1 0x0 PUSH2 0xC3F DUP5 DUP3 DUP6 ADD PUSH2 0xAAA JUMP JUMPDEST SWAP2 POP POP SWAP3 SWAP2 POP POP JUMP JUMPDEST PUSH1 0x0 PUSH1 0x20 DUP3 DUP5 SUB SLT ISZERO PUSH2 0xC5E JUMPI PUSH2 0xC5D PUSH2 0x1308 JUMP JUMPDEST JUMPDEST PUSH1 0x0 PUSH2 0xC6C DUP5 DUP3 DUP6 ADD PUSH2 0xB15 JUMP JUMPDEST SWAP2 POP POP SWAP3 SWAP2 POP POP JUMP JUMPDEST PUSH1 0x0 PUSH1 0x20 DUP3 DUP5 SUB SLT ISZERO PUSH2 0xC8B JUMPI PUSH2 0xC8A PUSH2 0x1308 JUMP JUMPDEST JUMPDEST PUSH1 0x0 PUSH2 0xC99 DUP5 DUP3 DUP6 ADD PUSH2 0xB2A JUMP JUMPDEST SWAP2 POP POP SWAP3 SWAP2 POP POP JUMP JUMPDEST PUSH1 0x0 DUP1 PUSH1 0x40 DUP4 DUP6 SUB SLT ISZERO PUSH2 0xCB9 JUMPI PUSH2 0xCB8 PUSH2 0x1308 JUMP JUMPDEST JUMPDEST PUSH1 0x0 PUSH2 0xCC7 DUP6 DUP3 DUP7 ADD PUSH2 0xB2A JUMP JUMPDEST SWAP3 POP POP PUSH1 0x20 DUP4 ADD CALLDATALOAD PUSH8 0xFFFFFFFFFFFFFFFF DUP2 GT ISZERO PUSH2 0xCE8 JUMPI PUSH2 0xCE7 PUSH2 0x1303 JUMP JUMPDEST JUMPDEST PUSH2 0xCF4 DUP6 DUP3 DUP7 ADD PUSH2 0xB95 JUMP JUMPDEST SWAP2 POP POP SWAP3 POP SWAP3 SWAP1 POP JUMP JUMPDEST PUSH1 0x0 PUSH1 0x20 DUP3 DUP5 SUB SLT ISZERO PUSH2 0xD14 JUMPI PUSH2 0xD13 PUSH2 0x1308 JUMP JUMPDEST JUMPDEST PUSH1 0x0 DUP3 ADD MLOAD PUSH8 0xFFFFFFFFFFFFFFFF DUP2 GT ISZERO PUSH2 0xD32 JUMPI PUSH2 0xD31 PUSH2 0x1303 JUMP JUMPDEST JUMPDEST PUSH2 0xD3E DUP5 DUP3 DUP6 ADD PUSH2 0xBC3 JUMP JUMPDEST SWAP2 POP POP SWAP3 SWAP2 POP POP JUMP JUMPDEST PUSH1 0x0 PUSH1 0x20 DUP3 DUP5 SUB SLT ISZERO PUSH2 0xD5D JUMPI PUSH2 0xD5C PUSH2 0x1308 JUMP JUMPDEST JUMPDEST PUSH1 0x0 PUSH2 0xD6B DUP5 DUP3 DUP6 ADD PUSH2 0xBF1 JUMP JUMPDEST SWAP2 POP POP SWAP3 SWAP2 POP POP JUMP JUMPDEST PUSH1 0x0 PUSH1 0x20 DUP3 DUP5 SUB SLT ISZERO PUSH2 0xD8A JUMPI PUSH2 0xD89 PUSH2 0x1308 JUMP JUMPDEST JUMPDEST PUSH1 0x0 PUSH2 0xD98 DUP5 DUP3 DUP6 ADD PUSH2 0xC06 JUMP JUMPDEST SWAP2 POP POP SWAP3 SWAP2 POP POP JUMP JUMPDEST PUSH1 0x0 DUP1 PUSH1 0x0 DUP1 PUSH1 0x0 PUSH1 0x60 DUP7 DUP9 SUB SLT ISZERO PUSH2 0xDBD JUMPI PUSH2 0xDBC PUSH2 0x1308 JUMP JUMPDEST JUMPDEST PUSH1 0x0 PUSH2 0xDCB DUP9 DUP3 DUP10 ADD PUSH2 0xBF1 JUMP JUMPDEST SWAP6 POP POP PUSH1 0x20 DUP7 ADD CALLDATALOAD PUSH8 0xFFFFFFFFFFFFFFFF DUP2 GT ISZERO PUSH2 0xDEC JUMPI PUSH2 0xDEB PUSH2 0x1303 JUMP JUMPDEST JUMPDEST PUSH2 0xDF8 DUP9 DUP3 DUP10 ADD PUSH2 0xB3F JUMP JUMPDEST SWAP5 POP SWAP5 POP POP PUSH1 0x40 DUP7 ADD CALLDATALOAD PUSH8 0xFFFFFFFFFFFFFFFF DUP2 GT ISZERO PUSH2 0xE1B JUMPI PUSH2 0xE1A PUSH2 0x1303 JUMP JUMPDEST JUMPDEST PUSH2 0xE27 DUP9 DUP3 DUP10 ADD PUSH2 0xABF JUMP JUMPDEST SWAP3 POP SWAP3 POP POP SWAP3 SWAP6 POP SWAP3 SWAP6 SWAP1 SWAP4 POP JUMP JUMPDEST PUSH1 0x0 DUP1 PUSH1 0x0 DUP1 PUSH1 0x60 DUP6 DUP8 SUB SLT ISZERO PUSH2 0xE50 JUMPI PUSH2 0xE4F PUSH2 0x1308 JUMP JUMPDEST JUMPDEST PUSH1 0x0 PUSH2 0xE5E DUP8 DUP3 DUP9 ADD PUSH2 0xBF1 JUMP JUMPDEST SWAP5 POP POP PUSH1 0x20 DUP6 ADD CALLDATALOAD PUSH8 0xFFFFFFFFFFFFFFFF DUP2 GT ISZERO PUSH2 0xE7F JUMPI PUSH2 0xE7E PUSH2 0x1303 JUMP JUMPDEST JUMPDEST PUSH2 0xE8B DUP8 DUP3 DUP9 ADD PUSH2 0xB95 JUMP JUMPDEST SWAP4 POP POP PUSH1 0x40 DUP6 ADD CALLDATALOAD PUSH8 0xFFFFFFFFFFFFFFFF DUP2 GT ISZERO PUSH2 0xEAC JUMPI PUSH2 0xEAB PUSH2 0x1303 JUMP JUMPDEST JUMPDEST PUSH2 0xEB8 DUP8 DUP3 DUP9 ADD PUSH2 0xABF JUMP JUMPDEST SWAP3 POP SWAP3 POP POP SWAP3 SWAP6 SWAP2 SWAP5 POP SWAP3 POP JUMP JUMPDEST PUSH1 0x0 DUP1 PUSH1 0x0 DUP1 PUSH1 0x60 DUP6 DUP8 SUB SLT ISZERO PUSH2 0xEE0 JUMPI PUSH2 0xEDF PUSH2 0x1308 JUMP JUMPDEST JUMPDEST PUSH1 0x0 PUSH2 0xEEE DUP8 DUP3 DUP9 ADD PUSH2 0xBF1 JUMP JUMPDEST SWAP5 POP POP PUSH1 0x20 PUSH2 0xEFF DUP8 DUP3 DUP9 ADD PUSH2 0xBF1 JUMP JUMPDEST SWAP4 POP POP PUSH1 0x40 DUP6 ADD CALLDATALOAD PUSH8 0xFFFFFFFFFFFFFFFF DUP2 GT ISZERO PUSH2 0xF20 JUMPI PUSH2 0xF1F PUSH2 0x1303 JUMP JUMPDEST JUMPDEST PUSH2 0xF2C DUP8 DUP3 DUP9 ADD PUSH2 0xABF JUMP JUMPDEST SWAP3 POP SWAP3 POP POP SWAP3 SWAP6 SWAP2 SWAP5 POP SWAP3 POP JUMP JUMPDEST PUSH2 0xF43 DUP2 PUSH2 0x11A1 JUMP JUMPDEST DUP3 MSTORE POP POP JUMP JUMPDEST PUSH1 0x0 PUSH2 0xF54 DUP3 PUSH2 0x117A JUMP JUMPDEST PUSH2 0xF5E DUP2 DUP6 PUSH2 0x1185 JUMP JUMPDEST SWAP4 POP PUSH2 0xF6E DUP2 DUP6 PUSH1 0x20 DUP7 ADD PUSH2 0x11FE JUMP JUMPDEST PUSH2 0xF77 DUP2 PUSH2 0x130D JUMP JUMPDEST DUP5 ADD SWAP2 POP POP SWAP3 SWAP2 POP POP JUMP JUMPDEST PUSH1 0x0 PUSH2 0xF8D DUP3 PUSH2 0x117A JUMP JUMPDEST PUSH2 0xF97 DUP2 DUP6 PUSH2 0x1196 JUMP JUMPDEST SWAP4 POP PUSH2 0xFA7 DUP2 DUP6 PUSH1 0x20 DUP7 ADD PUSH2 0x11FE JUMP JUMPDEST DUP1 DUP5 ADD SWAP2 POP POP SWAP3 SWAP2 POP POP JUMP JUMPDEST PUSH1 0x0 PUSH2 0xFC0 PUSH1 0x14 DUP4 PUSH2 0x1185 JUMP JUMPDEST SWAP2 POP PUSH2 0xFCB DUP3 PUSH2 0x131E JUMP JUMPDEST PUSH1 0x20 DUP3 ADD SWAP1 POP SWAP2 SWAP1 POP JUMP JUMPDEST PUSH1 0x0 PUSH2 0xFE3 PUSH1 0x1 DUP4 PUSH2 0x1196 JUMP JUMPDEST SWAP2 POP PUSH2 0xFEE DUP3 PUSH2 0x1347 JUMP JUMPDEST PUSH1 0x1 DUP3 ADD SWAP1 POP SWAP2 SWAP1 POP JUMP JUMPDEST PUSH2 0x1002 DUP2 PUSH2 0x11E5 JUMP JUMPDEST DUP3 MSTORE POP POP JUMP JUMPDEST PUSH1 0x0 PUSH2 0x1014 DUP3 DUP6 PUSH2 0xF82 JUMP JUMPDEST SWAP2 POP PUSH2 0x101F DUP3 PUSH2 0xFD6 JUMP JUMPDEST SWAP2 POP PUSH2 0x102B DUP3 DUP5 PUSH2 0xF82 JUMP JUMPDEST SWAP2 POP DUP2 SWAP1 POP SWAP4 SWAP3 POP POP POP JUMP JUMPDEST PUSH1 0x0 PUSH1 0x20 DUP3 ADD SWAP1 POP PUSH2 0x104C PUSH1 0x0 DUP4 ADD DUP5 PUSH2 0xF3A JUMP JUMPDEST SWAP3 SWAP2 POP POP JUMP JUMPDEST PUSH1 0x0 PUSH1 0x80 DUP3 ADD SWAP1 POP PUSH2 0x1067 PUSH1 0x0 DUP4 ADD DUP8 PUSH2 0xF3A JUMP JUMPDEST PUSH2 0x1074 PUSH1 0x20 DUP4 ADD DUP7 PUSH2 0xF3A JUMP JUMPDEST DUP2 DUP2 SUB PUSH1 0x40 DUP4 ADD MSTORE PUSH2 0x1086 DUP2 DUP6 PUSH2 0xF49 JUMP JUMPDEST SWAP1 POP PUSH2 0x1095 PUSH1 0x60 DUP4 ADD DUP5 PUSH2 0xFF9 JUMP JUMPDEST SWAP6 SWAP5 POP POP POP POP POP JUMP JUMPDEST PUSH1 0x0 PUSH1 0x40 DUP3 ADD SWAP1 POP PUSH2 0x10B3 PUSH1 0x0 DUP4 ADD DUP6 PUSH2 0xF3A JUMP JUMPDEST PUSH2 0x10C0 PUSH1 0x20 DUP4 ADD DUP5 PUSH2 0xFF9 JUMP JUMPDEST SWAP4 SWAP3 POP POP POP JUMP JUMPDEST PUSH1 0x0 PUSH1 0x20 DUP3 ADD SWAP1 POP DUP2 DUP2 SUB PUSH1 0x0 DUP4 ADD MSTORE PUSH2 0x10E1 DUP2 DUP5 PUSH2 0xF49 JUMP JUMPDEST SWAP1 POP SWAP3 SWAP2 POP POP JUMP JUMPDEST PUSH1 0x0 PUSH1 0x20 DUP3 ADD SWAP1 POP DUP2 DUP2 SUB PUSH1 0x0 DUP4 ADD MSTORE PUSH2 0x1102 DUP2 PUSH2 0xFB3 JUMP JUMPDEST SWAP1 POP SWAP2 SWAP1 POP JUMP JUMPDEST PUSH1 0x0 PUSH1 0x20 DUP3 ADD SWAP1 POP PUSH2 0x111E PUSH1 0x0 DUP4 ADD DUP5 PUSH2 0xFF9 JUMP JUMPDEST SWAP3 SWAP2 POP POP JUMP JUMPDEST PUSH1 0x0 PUSH2 0x112E PUSH2 0x113F JUMP JUMPDEST SWAP1 POP PUSH2 0x113A DUP3 DUP3 PUSH2 0x1231 JUMP JUMPDEST SWAP2 SWAP1 POP JUMP JUMPDEST PUSH1 0x0 PUSH1 0x40 MLOAD SWAP1 POP SWAP1 JUMP JUMPDEST PUSH1 0x0 PUSH8 0xFFFFFFFFFFFFFFFF DUP3 GT ISZERO PUSH2 0x1164 JUMPI PUSH2 0x1163 PUSH2 0x12C0 JUMP JUMPDEST JUMPDEST PUSH2 0x116D DUP3 PUSH2 0x130D JUMP JUMPDEST SWAP1 POP PUSH1 0x20 DUP2 ADD SWAP1 POP SWAP2 SWAP1 POP JUMP JUMPDEST PUSH1 0x0 DUP2 MLOAD SWAP1 POP SWAP2 SWAP1 POP JUMP JUMPDEST PUSH1 0x0 DUP3 DUP3 MSTORE PUSH1 0x20 DUP3 ADD SWAP1 POP SWAP3 SWAP2 POP POP JUMP JUMPDEST PUSH1 0x0 DUP2 SWAP1 POP SWAP3 SWAP2 POP POP JUMP JUMPDEST PUSH1 0x0 PUSH2 0x11AC DUP3 PUSH2 0x11C5 JUMP JUMPDEST SWAP1 POP SWAP2 SWAP1 POP JUMP JUMPDEST PUSH1 0x0 PUSH2 0x11BE DUP3 PUSH2 0x11A1 JUMP JUMPDEST SWAP1 POP SWAP2 SWAP1 POP JUMP JUMPDEST PUSH1 0x0 PUSH20 0xFFFFFFFFFFFFFFFFFFFFFFFFFFFFFFFFFFFFFFFF DUP3 AND SWAP1 POP SWAP2 SWAP1 POP JUMP JUMPDEST PUSH1 0x0 DUP2 SWAP1 POP SWAP2 SWAP1 POP JUMP JUMPDEST DUP3 DUP2 DUP4 CALLDATACOPY PUSH1 0x0 DUP4 DUP4 ADD MSTORE POP POP POP JUMP JUMPDEST PUSH1 0x0 JUMPDEST DUP4 DUP2 LT ISZERO PUSH2 0x121C JUMPI DUP1 DUP3 ADD MLOAD DUP2 DUP5 ADD MSTORE PUSH1 0x20 DUP2 ADD SWAP1 POP PUSH2 0x1201 JUMP JUMPDEST DUP4 DUP2 GT ISZERO PUSH2 0x122B JUMPI PUSH1 0x0 DUP5 DUP5 ADD MSTORE JUMPDEST POP POP POP POP JUMP JUMPDEST PUSH2 0x123A DUP3 PUSH2 0x130D JUMP JUMPDEST DUP2 ADD DUP2 DUP2 LT PUSH8 0xFFFFFFFFFFFFFFFF DUP3 GT OR ISZERO PUSH2 0x1259 JUMPI PUSH2 0x1258 PUSH2 0x12C0 JUMP JUMPDEST JUMPDEST DUP1 PUSH1 0x40 MSTORE POP POP POP JUMP JUMPDEST PUSH32 0x4E487B7100000000000000000000000000000000000000000000000000000000 PUSH1 0x0 MSTORE PUSH1 0x21 PUSH1 0x4 MSTORE PUSH1 0x24 PUSH1 0x0 REVERT JUMPDEST PUSH32 0x4E487B7100000000000000000000000000000000000000000000000000000000 PUSH1 0x0 MSTORE PUSH1 0x32 PUSH1 0x4 MSTORE PUSH1 0x24 PUSH1 0x0 REVERT JUMPDEST PUSH32 0x4E487B7100000000000000000000000000000000000000000000000000000000 PUSH1 0x0 MSTORE PUSH1 0x41 PUSH1 0x4 MSTORE PUSH1 0x24 PUSH1 0x0 REVERT JUMPDEST PUSH1 0x0 DUP1 REVERT JUMPDEST PUSH1 0x0 DUP1 REVERT JUMPDEST PUSH1 0x0 DUP1 REVERT JUMPDEST PUSH1 0x0 DUP1 REVERT JUMPDEST PUSH1 0x0 DUP1 REVERT JUMPDEST PUSH1 0x0 DUP1 REVERT JUMPDEST PUSH1 0x0 PUSH1 0x1F NOT PUSH1 0x1F DUP4 ADD AND SWAP1 POP SWAP2 SWAP1 POP JUMP JUMPDEST PUSH32 0x53656E736F72206E6F7420737065636966696564000000000000000000000000 PUSH1 0x0 DUP3 ADD MSTORE POP JUMP JUMPDEST PUSH32 0x5F00000000000000000000000000000000000000000000000000000000000000 PUSH1 0x0 DUP3 ADD MSTORE POP JUMP JUMPDEST PUSH2 0x1379 DUP2 PUSH2 0x11A1 JUMP JUMPDEST DUP2 EQ PUSH2 0x1384 JUMPI PUSH1 0x0 DUP1 REVERT JUMPDEST POP JUMP JUMPDEST PUSH2 0x1390 DUP2 PUSH2 0x11B3 JUMP JUMPDEST DUP2 EQ PUSH2 0x139B JUMPI PUSH1 0x0 DUP1 REVERT JUMPDEST POP JUMP JUMPDEST PUSH1 0x3 DUP2 LT PUSH2 0x13AB JUMPI PUSH1 0x0 DUP1 REVERT JUMPDEST POP JUMP JUMPDEST PUSH2 0x13B7 DUP2 PUSH2 0x11E5 JUMP JUMPDEST DUP2 EQ PUSH2 0x13C2 JUMPI PUSH1 0x0 DUP1 REVERT JUMPDEST POP JUMP INVALID LOG2 PUSH5 0x6970667358 0x22 SLT KECCAK256 0xE PUSH29 0x56E19609A55DE19C3B4D40B0FE3419BE09260DB9AC66A68922E8A12D50 0xB5 PUSH5 0x736F6C6343 STOP ADDMOD SMOD STOP CALLER "
		},
		"gasEstimates": {
			"creation": {
				"codeDepositCost": "1023000",
				"executionCost": "1061",
				"totalCost": "1024061"
			},
			"external": {
				"getCountERC1155byIndex(uint256,uint256,address[])": "infinite",
				"getCountERC1155byName(uint256,string,address[])": "infinite",
				"getERC1155byIndexAndId(uint256,uint256,address[])": "infinite",
				"getIdByName(uint256,string,address[])": "infinite",
				"getNameById(uint256,uint256,address[])": "infinite",
				"getNameOfSensor(uint8,string)": "infinite",
				"getSensorTypesEnumKeyByValue(uint8)": "infinite",
				"indexToContract(uint256)": "2906",
				"indexToOwner(uint256)": "2905"
			}
		},
		"methodIdentifiers": {
			"getCountERC1155byIndex(uint256,uint256,address[])": "ab4108b4",
			"getCountERC1155byName(uint256,string,address[])": "cb429f8a",
			"getERC1155byIndexAndId(uint256,uint256,address[])": "c50be50b",
			"getIdByName(uint256,string,address[])": "bad187a5",
			"getNameById(uint256,uint256,address[])": "acc00456",
			"getNameOfSensor(uint8,string)": "a67e3c35",
			"getSensorTypesEnumKeyByValue(uint8)": "f190262a",
			"indexToContract(uint256)": "ba535b8e",
			"indexToOwner(uint256)": "cd78aefb"
		}
	},
	"abi": [
		{
			"inputs": [
				{
					"internalType": "uint256",
					"name": "_index",
					"type": "uint256"
				},
				{
					"internalType": "uint256",
					"name": "_id",
					"type": "uint256"
				},
				{
					"internalType": "contract EdgeNodeItems[]",
					"name": "tokens",
					"type": "address[]"
				}
			],
			"name": "getCountERC1155byIndex",
			"outputs": [
				{
					"internalType": "uint256",
					"name": "amount",
					"type": "uint256"
				}
			],
			"stateMutability": "view",
			"type": "function"
		},
		{
			"inputs": [
				{
					"internalType": "uint256",
					"name": "_index",
					"type": "uint256"
				},
				{
					"internalType": "string",
					"name": "_name",
					"type": "string"
				},
				{
					"internalType": "contract EdgeNodeItems[]",
					"name": "tokens",
					"type": "address[]"
				}
			],
			"name": "getCountERC1155byName",
			"outputs": [
				{
					"internalType": "uint256",
					"name": "amount",
					"type": "uint256"
				}
			],
			"stateMutability": "view",
			"type": "function"
		},
		{
			"inputs": [
				{
					"internalType": "uint256",
					"name": "_index",
					"type": "uint256"
				},
				{
					"internalType": "uint256",
					"name": "_id",
					"type": "uint256"
				},
				{
					"internalType": "contract EdgeNodeItems[]",
					"name": "tokens",
					"type": "address[]"
				}
			],
			"name": "getERC1155byIndexAndId",
			"outputs": [
				{
					"internalType": "address",
					"name": "_contract",
					"type": "address"
				},
				{
					"internalType": "address",
					"name": "_owner",
					"type": "address"
				},
				{
					"internalType": "string",
					"name": "_uri",
					"type": "string"
				},
				{
					"internalType": "uint256",
					"name": "supply",
					"type": "uint256"
				}
			],
			"stateMutability": "view",
			"type": "function"
		},
		{
			"inputs": [
				{
					"internalType": "uint256",
					"name": "_index",
					"type": "uint256"
				},
				{
					"internalType": "string",
					"name": "_name",
					"type": "string"
				},
				{
					"internalType": "contract EdgeNodeItems[]",
					"name": "tokens",
					"type": "address[]"
				}
			],
			"name": "getIdByName",
			"outputs": [
				{
					"internalType": "uint256",
					"name": "",
					"type": "uint256"
				}
			],
			"stateMutability": "view",
			"type": "function"
		},
		{
			"inputs": [
				{
					"internalType": "uint256",
					"name": "_index",
					"type": "uint256"
				},
				{
					"internalType": "uint256",
					"name": "_id",
					"type": "uint256"
				},
				{
					"internalType": "contract EdgeNodeItems[]",
					"name": "tokens",
					"type": "address[]"
				}
			],
			"name": "getNameById",
			"outputs": [
				{
					"internalType": "string",
					"name": "",
					"type": "string"
				}
			],
			"stateMutability": "view",
			"type": "function"
		},
		{
			"inputs": [
				{
					"internalType": "enum UtilityFactoryERC1155.SensorTypes",
					"name": "_sensorTypes",
					"type": "uint8"
				},
				{
					"internalType": "string",
					"name": "_name",
					"type": "string"
				}
			],
			"name": "getNameOfSensor",
			"outputs": [
				{
					"internalType": "string",
					"name": "",
					"type": "string"
				}
			],
			"stateMutability": "pure",
			"type": "function"
		},
		{
			"inputs": [
				{
					"internalType": "enum UtilityFactoryERC1155.SensorTypes",
					"name": "_sensorTypes",
					"type": "uint8"
				}
			],
			"name": "getSensorTypesEnumKeyByValue",
			"outputs": [
				{
					"internalType": "string",
					"name": "",
					"type": "string"
				}
			],
			"stateMutability": "pure",
			"type": "function"
		},
		{
			"inputs": [
				{
					"internalType": "uint256",
					"name": "",
					"type": "uint256"
				}
			],
			"name": "indexToContract",
			"outputs": [
				{
					"internalType": "address",
					"name": "",
					"type": "address"
				}
			],
			"stateMutability": "view",
			"type": "function"
		},
		{
			"inputs": [
				{
					"internalType": "uint256",
					"name": "",
					"type": "uint256"
				}
			],
			"name": "indexToOwner",
			"outputs": [
				{
					"internalType": "address",
					"name": "",
					"type": "address"
				}
			],
			"stateMutability": "view",
			"type": "function"
		}
	]
}