{
  "contractName": "EdgeNodeItems",
  "abi": [
    {
      "inputs": [
        {
          "internalType": "string",
          "name": "_contractName",
          "type": "string"
        },
        {
          "internalType": "string",
          "name": "_uri",
          "type": "string"
        },
        {
          "internalType": "string[]",
          "name": "_names",
          "type": "string[]"
        },
        {
          "internalType": "uint256[]",
          "name": "_ids",
          "type": "uint256[]"
        }
      ],
      "stateMutability": "nonpayable",
      "type": "constructor"
    },
    {
      "anonymous": false,
      "inputs": [
        {
          "indexed": true,
          "internalType": "address",
          "name": "account",
          "type": "address"
        },
        {
          "indexed": true,
          "internalType": "address",
          "name": "operator",
          "type": "address"
        },
        {
          "indexed": false,
          "internalType": "bool",
          "name": "approved",
          "type": "bool"
        }
      ],
      "name": "ApprovalForAll",
      "type": "event"
    },
    {
      "anonymous": false,
      "inputs": [
        {
          "indexed": true,
          "internalType": "address",
          "name": "previousOwner",
          "type": "address"
        },
        {
          "indexed": true,
          "internalType": "address",
          "name": "newOwner",
          "type": "address"
        }
      ],
      "name": "OwnershipTransferred",
      "type": "event"
    },
    {
      "anonymous": false,
      "inputs": [
        {
          "indexed": true,
          "internalType": "address",
          "name": "operator",
          "type": "address"
        },
        {
          "indexed": true,
          "internalType": "address",
          "name": "from",
          "type": "address"
        },
        {
          "indexed": true,
          "internalType": "address",
          "name": "to",
          "type": "address"
        },
        {
          "indexed": false,
          "internalType": "uint256[]",
          "name": "ids",
          "type": "uint256[]"
        },
        {
          "indexed": false,
          "internalType": "uint256[]",
          "name": "values",
          "type": "uint256[]"
        }
      ],
      "name": "TransferBatch",
      "type": "event"
    },
    {
      "anonymous": false,
      "inputs": [
        {
          "indexed": true,
          "internalType": "address",
          "name": "operator",
          "type": "address"
        },
        {
          "indexed": true,
          "internalType": "address",
          "name": "from",
          "type": "address"
        },
        {
          "indexed": true,
          "internalType": "address",
          "name": "to",
          "type": "address"
        },
        {
          "indexed": false,
          "internalType": "uint256",
          "name": "id",
          "type": "uint256"
        },
        {
          "indexed": false,
          "internalType": "uint256",
          "name": "value",
          "type": "uint256"
        }
      ],
      "name": "TransferSingle",
      "type": "event"
    },
    {
      "anonymous": false,
      "inputs": [
        {
          "indexed": false,
          "internalType": "string",
          "name": "value",
          "type": "string"
        },
        {
          "indexed": true,
          "internalType": "uint256",
          "name": "id",
          "type": "uint256"
        }
      ],
      "name": "URI",
      "type": "event"
    },
    {
      "inputs": [
        {
          "internalType": "address",
          "name": "account",
          "type": "address"
        },
        {
          "internalType": "uint256",
          "name": "id",
          "type": "uint256"
        }
      ],
      "name": "balanceOf",
      "outputs": [
        {
          "internalType": "uint256",
          "name": "",
          "type": "uint256"
        }
      ],
      "stateMutability": "view",
      "type": "function",
      "constant": true
    },
    {
      "inputs": [
        {
          "internalType": "address[]",
          "name": "accounts",
          "type": "address[]"
        },
        {
          "internalType": "uint256[]",
          "name": "ids",
          "type": "uint256[]"
        }
      ],
      "name": "balanceOfBatch",
      "outputs": [
        {
          "internalType": "uint256[]",
          "name": "",
          "type": "uint256[]"
        }
      ],
      "stateMutability": "view",
      "type": "function",
      "constant": true
    },
    {
      "inputs": [],
      "name": "baseMetadataURI",
      "outputs": [
        {
          "internalType": "string",
          "name": "",
          "type": "string"
        }
      ],
      "stateMutability": "view",
      "type": "function",
      "constant": true
    },
    {
      "inputs": [
        {
          "internalType": "uint256",
          "name": "",
          "type": "uint256"
        }
      ],
      "name": "idToName",
      "outputs": [
        {
          "internalType": "string",
          "name": "",
          "type": "string"
        }
      ],
      "stateMutability": "view",
      "type": "function",
      "constant": true
    },
    {
      "inputs": [
        {
          "internalType": "uint256",
          "name": "",
          "type": "uint256"
        }
      ],
      "name": "ids",
      "outputs": [
        {
          "internalType": "uint256",
          "name": "",
          "type": "uint256"
        }
      ],
      "stateMutability": "view",
      "type": "function",
      "constant": true
    },
    {
      "inputs": [
        {
          "internalType": "address",
          "name": "account",
          "type": "address"
        },
        {
          "internalType": "address",
          "name": "operator",
          "type": "address"
        }
      ],
      "name": "isApprovedForAll",
      "outputs": [
        {
          "internalType": "bool",
          "name": "",
          "type": "bool"
        }
      ],
      "stateMutability": "view",
      "type": "function",
      "constant": true
    },
    {
      "inputs": [],
      "name": "mintFee",
      "outputs": [
        {
          "internalType": "uint256",
          "name": "",
          "type": "uint256"
        }
      ],
      "stateMutability": "view",
      "type": "function",
      "constant": true
    },
    {
      "inputs": [],
      "name": "name",
      "outputs": [
        {
          "internalType": "string",
          "name": "",
          "type": "string"
        }
      ],
      "stateMutability": "view",
      "type": "function",
      "constant": true
    },
    {
      "inputs": [
        {
          "internalType": "string",
          "name": "",
          "type": "string"
        }
      ],
      "name": "nameToId",
      "outputs": [
        {
          "internalType": "uint256",
          "name": "",
          "type": "uint256"
        }
      ],
      "stateMutability": "view",
      "type": "function",
      "constant": true
    },
    {
      "inputs": [
        {
          "internalType": "uint256",
          "name": "",
          "type": "uint256"
        }
      ],
      "name": "names",
      "outputs": [
        {
          "internalType": "string",
          "name": "",
          "type": "string"
        }
      ],
      "stateMutability": "view",
      "type": "function",
      "constant": true
    },
    {
      "inputs": [],
      "name": "owner",
      "outputs": [
        {
          "internalType": "address",
          "name": "",
          "type": "address"
        }
      ],
      "stateMutability": "view",
      "type": "function",
      "constant": true
    },
    {
      "inputs": [],
      "name": "renounceOwnership",
      "outputs": [],
      "stateMutability": "nonpayable",
      "type": "function"
    },
    {
      "inputs": [
        {
          "internalType": "address",
          "name": "from",
          "type": "address"
        },
        {
          "internalType": "address",
          "name": "to",
          "type": "address"
        },
        {
          "internalType": "uint256[]",
          "name": "ids",
          "type": "uint256[]"
        },
        {
          "internalType": "uint256[]",
          "name": "amounts",
          "type": "uint256[]"
        },
        {
          "internalType": "bytes",
          "name": "data",
          "type": "bytes"
        }
      ],
      "name": "safeBatchTransferFrom",
      "outputs": [],
      "stateMutability": "nonpayable",
      "type": "function"
    },
    {
      "inputs": [
        {
          "internalType": "address",
          "name": "from",
          "type": "address"
        },
        {
          "internalType": "address",
          "name": "to",
          "type": "address"
        },
        {
          "internalType": "uint256",
          "name": "id",
          "type": "uint256"
        },
        {
          "internalType": "uint256",
          "name": "amount",
          "type": "uint256"
        },
        {
          "internalType": "bytes",
          "name": "data",
          "type": "bytes"
        }
      ],
      "name": "safeTransferFrom",
      "outputs": [],
      "stateMutability": "nonpayable",
      "type": "function"
    },
    {
      "inputs": [
        {
          "internalType": "address",
          "name": "operator",
          "type": "address"
        },
        {
          "internalType": "bool",
          "name": "approved",
          "type": "bool"
        }
      ],
      "name": "setApprovalForAll",
      "outputs": [],
      "stateMutability": "nonpayable",
      "type": "function"
    },
    {
      "inputs": [
        {
          "internalType": "bytes4",
          "name": "interfaceId",
          "type": "bytes4"
        }
      ],
      "name": "supportsInterface",
      "outputs": [
        {
          "internalType": "bool",
          "name": "",
          "type": "bool"
        }
      ],
      "stateMutability": "view",
      "type": "function",
      "constant": true
    },
    {
      "inputs": [
        {
          "internalType": "address",
          "name": "newOwner",
          "type": "address"
        }
      ],
      "name": "transferOwnership",
      "outputs": [],
      "stateMutability": "nonpayable",
      "type": "function"
    },
    {
      "inputs": [
        {
          "internalType": "uint256",
          "name": "_tokenid",
          "type": "uint256"
        }
      ],
      "name": "uri",
      "outputs": [
        {
          "internalType": "string",
          "name": "",
          "type": "string"
        }
      ],
      "stateMutability": "view",
      "type": "function",
      "constant": true
    },
    {
      "inputs": [],
      "name": "getNames",
      "outputs": [
        {
          "internalType": "string[]",
          "name": "",
          "type": "string[]"
        }
      ],
      "stateMutability": "view",
      "type": "function",
      "constant": true
    },
    {
      "inputs": [
        {
          "internalType": "string",
          "name": "newuri",
          "type": "string"
        }
      ],
      "name": "setURI",
      "outputs": [],
      "stateMutability": "nonpayable",
      "type": "function"
    },
    {
      "inputs": [
        {
          "internalType": "uint256",
          "name": "_fee",
          "type": "uint256"
        }
      ],
      "name": "setFee",
      "outputs": [],
      "stateMutability": "nonpayable",
      "type": "function"
    },
    {
      "inputs": [
        {
          "internalType": "address",
          "name": "account",
          "type": "address"
        },
        {
          "internalType": "uint256",
          "name": "_id",
          "type": "uint256"
        },
        {
          "internalType": "uint256",
          "name": "amount",
          "type": "uint256"
        }
      ],
      "name": "mint",
      "outputs": [
        {
          "internalType": "uint256",
          "name": "",
          "type": "uint256"
        }
      ],
      "stateMutability": "payable",
      "type": "function",
      "payable": true
    },
    {
      "inputs": [
        {
          "internalType": "address",
          "name": "to",
          "type": "address"
        },
        {
          "internalType": "uint256[]",
          "name": "_ids",
          "type": "uint256[]"
        },
        {
          "internalType": "uint256[]",
          "name": "amounts",
          "type": "uint256[]"
        },
        {
          "internalType": "bytes",
          "name": "data",
          "type": "bytes"
        }
      ],
      "name": "mintBatch",
      "outputs": [],
      "stateMutability": "nonpayable",
      "type": "function"
    }
  ],
  "bytecode": "0x608060405260006008553480156200001657600080fd5b5060405162002a5738038062002a578339810160408190526200003991620006d1565b826200004581620000d3565b506200005133620000ec565b81516200006690600490602085019062000333565b5080516200007c90600590602084019062000397565b50620000876200013e565b620000928362000236565b8251620000a7906006906020860190620003e3565b508351620000bd906007906020870190620003e3565b50620000c9326200027e565b5050505062000953565b8051620000e8906002906020840190620003e3565b5050565b600380546001600160a01b038381166001600160a01b0319831681179093556040519116919082907f8be0079c531659141344cd1fd0a4f28419497f9722a3daafe3b4186f6b6457e090600090a35050565b60005b60055481101562000233576005818154811062000162576200016262000801565b906000526020600020015460096004838154811062000185576200018562000801565b906000526020600020016040516200019e919062000853565b908152604051908190036020019020556004805482908110620001c557620001c562000801565b90600052602060002001600a600060058481548110620001e957620001e962000801565b90600052602060002001548152602001908152602001600020908054620002109062000817565b6200021d9291906200045f565b50806200022a81620008f6565b91505062000141565b50565b336200024162000324565b6001600160a01b031614620002735760405162461bcd60e51b81526004016200026a906200091e565b60405180910390fd5b6200023381620000d3565b336200028962000324565b6001600160a01b031614620002b25760405162461bcd60e51b81526004016200026a906200091e565b6001600160a01b038116620003195760405162461bcd60e51b815260206004820152602660248201527f4f776e61626c653a206e6577206f776e657220697320746865207a65726f206160448201526564647265737360d01b60648201526084016200026a565b6200023381620000ec565b6003546001600160a01b031690565b82805482825590600052602060002090810192821562000385579160200282015b8281111562000385578251805162000374918491602090910190620003e3565b509160200191906001019062000354565b5062000393929150620004e3565b5090565b828054828255906000526020600020908101928215620003d5579160200282015b82811115620003d5578251825591602001919060010190620003b8565b506200039392915062000504565b828054620003f19062000817565b90600052602060002090601f016020900481019282620004155760008555620003d5565b82601f106200043057805160ff1916838001178555620003d5565b82800160010185558215620003d55791820182811115620003d5578251825591602001919060010190620003b8565b8280546200046d9062000817565b90600052602060002090601f016020900481019282620004915760008555620003d5565b82601f10620004a45780548555620003d5565b82800160010185558215620003d557600052602060002091601f016020900482015b82811115620003d5578254825591600101919060010190620004c6565b8082111562000393576000620004fa82826200051b565b50600101620004e3565b5b8082111562000393576000815560010162000505565b508054620005299062000817565b6000825580601f106200053a575050565b601f01602090049060005260206000209081019062000233919062000504565b634e487b7160e01b600052604160045260246000fd5b604051601f8201601f191681016001600160401b03811182821017156200059b576200059b6200055a565b604052919050565b600082601f830112620005b557600080fd5b81516001600160401b03811115620005d157620005d16200055a565b6020620005e7601f8301601f1916820162000570565b8281528582848701011115620005fc57600080fd5b60005b838110156200061c578581018301518282018401528201620005ff565b838111156200062e5760008385840101525b5095945050505050565b60006001600160401b038211156200065457620006546200055a565b5060051b60200190565b600082601f8301126200067057600080fd5b8151602062000689620006838362000638565b62000570565b82815260059290921b84018101918181019086841115620006a957600080fd5b8286015b84811015620006c65780518352918301918301620006ad565b509695505050505050565b60008060008060808587031215620006e857600080fd5b84516001600160401b03808211156200070057600080fd5b6200070e88838901620005a3565b95506020915081870151818111156200072657600080fd5b6200073489828a01620005a3565b9550506040870151818111156200074a57600080fd5b8701601f810189136200075c57600080fd5b80516200076d620006838262000638565b81815260059190911b8201840190848101908b8311156200078d57600080fd5b8584015b83811015620007ca57805186811115620007ab5760008081fd5b620007bb8e8983890101620005a3565b84525091860191860162000791565b5060608b0151909750945050505080821115620007e657600080fd5b50620007f5878288016200065e565b91505092959194509250565b634e487b7160e01b600052603260045260246000fd5b600181811c908216806200082c57607f821691505b6020821081036200084d57634e487b7160e01b600052602260045260246000fd5b50919050565b600080835481600182811c9150808316806200087057607f831692505b602080841082036200089057634e487b7160e01b86526022600452602486fd5b818015620008a75760018114620008b957620008e8565b60ff19861689528489019650620008e8565b60008a81526020902060005b86811015620008e05781548b820152908501908301620008c5565b505084890196505b509498975050505050505050565b6000600182016200091757634e487b7160e01b600052601160045260246000fd5b5060010190565b6020808252818101527f4f776e61626c653a2063616c6c6572206973206e6f7420746865206f776e6572604082015260600190565b6120f480620009636000396000f3fe60806040526004361061010f5760003560e01c8062fdd58e1461011457806301ffc9a71461014757806302fe53051461017757806306fdde03146101995780630e89341c146101bb57806313966db5146101db578063156e29f6146101f15780631f7fdffa146102045780632eb2c2d614610224578063364410b3146102445780634622ab03146102645780634e1273f4146102845780635b2bd79e146102b157806369fe0e2d146102c6578063715018a6146102e65780638da5cb5b146102fb578063a22cb46514610328578063cd838f0f14610348578063e985e9c51461036a578063f242432a146103b3578063f2fde38b146103d3578063f6d8f2cb146103f3578063fac333ac1461042b575b600080fd5b34801561012057600080fd5b5061013461012f36600461153e565b61044b565b6040519081526020015b60405180910390f35b34801561015357600080fd5b5061016761016236600461157e565b6104e2565b604051901515815260200161013e565b34801561018357600080fd5b50610197610192366004611641565b610534565b005b3480156101a557600080fd5b506101ae61056f565b60405161013e91906116e1565b3480156101c757600080fd5b506101ae6101d63660046116f4565b6105fd565b3480156101e757600080fd5b5061013460085481565b6101346101ff36600461170d565b610631565b34801561021057600080fd5b5061019761021f3660046117f4565b610664565b34801561023057600080fd5b5061019761023f36600461188c565b610676565b34801561025057600080fd5b506101ae61025f3660046116f4565b61070d565b34801561027057600080fd5b506101ae61027f3660046116f4565b610726565b34801561029057600080fd5b506102a461029f366004611935565b610751565b60405161013e9190611a3a565b3480156102bd57600080fd5b506101ae61087a565b3480156102d257600080fd5b506101976102e13660046116f4565b610887565b3480156102f257600080fd5b506101976108bb565b34801561030757600080fd5b506103106108f6565b6040516001600160a01b03909116815260200161013e565b34801561033457600080fd5b50610197610343366004611a4d565b610905565b34801561035457600080fd5b5061035d610914565b60405161013e9190611a89565b34801561037657600080fd5b50610167610385366004611aeb565b6001600160a01b03918216600090815260016020908152604080832093909416825291909152205460ff1690565b3480156103bf57600080fd5b506101976103ce366004611b1e565b6109ed565b3480156103df57600080fd5b506101976103ee366004611b82565b610a74565b3480156103ff57600080fd5b5061013461040e366004611641565b805160208183018101805160098252928201919093012091525481565b34801561043757600080fd5b506101346104463660046116f4565b610b11565b60006001600160a01b0383166104bc5760405162461bcd60e51b815260206004820152602b60248201527f455243313135353a2062616c616e636520717565727920666f7220746865207a60448201526a65726f206164647265737360a81b60648201526084015b60405180910390fd5b506000908152602081815260408083206001600160a01b03949094168352929052205490565b60006001600160e01b03198216636cdb3d1360e11b148061051357506001600160e01b031982166303a24d0760e21b145b8061052e57506301ffc9a760e01b6001600160e01b03198316145b92915050565b3361053d6108f6565b6001600160a01b0316146105635760405162461bcd60e51b81526004016104b390611b9d565b61056c81610b32565b50565b6007805461057c90611bd2565b80601f01602080910402602001604051908101604052809291908181526020018280546105a890611bd2565b80156105f55780601f106105ca576101008083540402835291602001916105f5565b820191906000526020600020905b8154815290600101906020018083116105d857829003601f168201915b505050505081565b6060600661060a83610b45565b60405160200161061b929190611c28565b6040516020818303038152906040529050919050565b6000600854341461064157600080fd5b61065c84848460405180602001604052806000815250610c4d565b509092915050565b61067084848484610d0b565b50505050565b6001600160a01b03851633148061069257506106928533610385565b6106f95760405162461bcd60e51b815260206004820152603260248201527f455243313135353a207472616e736665722063616c6c6572206973206e6f74206044820152711bdddb995c881b9bdc88185c1c1c9bdd995960721b60648201526084016104b3565b6107068585858585610e44565b5050505050565b600a602052600090815260409020805461057c90611bd2565b6004818154811061073657600080fd5b90600052602060002001600091509050805461057c90611bd2565b606081518351146107b65760405162461bcd60e51b815260206004820152602960248201527f455243313135353a206163636f756e747320616e6420696473206c656e677468604482015268040dad2e6dac2e8c6d60bb1b60648201526084016104b3565b600083516001600160401b038111156107d1576107d16115a2565b6040519080825280602002602001820160405280156107fa578160200160208202803683370190505b50905060005b84518110156108725761084585828151811061081e5761081e611ce2565b602002602001015185838151811061083857610838611ce2565b602002602001015161044b565b82828151811061085757610857611ce2565b602090810291909101015261086b81611d0e565b9050610800565b509392505050565b6006805461057c90611bd2565b336108906108f6565b6001600160a01b0316146108b65760405162461bcd60e51b81526004016104b390611b9d565b600855565b336108c46108f6565b6001600160a01b0316146108ea5760405162461bcd60e51b81526004016104b390611b9d565b6108f46000610fce565b565b6003546001600160a01b031690565b610910338383611020565b5050565b60606004805480602002602001604051908101604052809291908181526020016000905b828210156109e457838290600052602060002001805461095790611bd2565b80601f016020809104026020016040519081016040528092919081815260200182805461098390611bd2565b80156109d05780601f106109a5576101008083540402835291602001916109d0565b820191906000526020600020905b8154815290600101906020018083116109b357829003601f168201915b505050505081526020019060010190610938565b50505050905090565b6001600160a01b038516331480610a095750610a098533610385565b610a675760405162461bcd60e51b815260206004820152602960248201527f455243313135353a2063616c6c6572206973206e6f74206f776e6572206e6f7260448201526808185c1c1c9bdd995960ba1b60648201526084016104b3565b6107068585858585611100565b33610a7d6108f6565b6001600160a01b031614610aa35760405162461bcd60e51b81526004016104b390611b9d565b6001600160a01b038116610b085760405162461bcd60e51b815260206004820152602660248201527f4f776e61626c653a206e6577206f776e657220697320746865207a65726f206160448201526564647265737360d01b60648201526084016104b3565b61056c81610fce565b60058181548110610b2157600080fd5b600091825260209091200154905081565b8051610910906002906020840190611489565b606081600003610b6c5750506040805180820190915260018152600360fc1b602082015290565b8160005b8115610b965780610b8081611d0e565b9150610b8f9050600a83611d3d565b9150610b70565b6000816001600160401b03811115610bb057610bb06115a2565b6040519080825280601f01601f191660200182016040528015610bda576020820181803683370190505b5090505b8415610c4557610bef600183611d51565b9150610bfc600a86611d68565b610c07906030611d7c565b60f81b818381518110610c1c57610c1c611ce2565b60200101906001600160f81b031916908160001a905350610c3e600a86611d3d565b9450610bde565b949350505050565b6001600160a01b038416610c735760405162461bcd60e51b81526004016104b390611d94565b33610c8d81600087610c848861120b565b6107068861120b565b6000848152602081815260408083206001600160a01b038916845290915281208054859290610cbd908490611d7c565b909155505060408051858152602081018590526001600160a01b03808816926000929185169160008051602061209f833981519152910160405180910390a461070681600087878787611256565b6001600160a01b038416610d315760405162461bcd60e51b81526004016104b390611d94565b8151835114610d525760405162461bcd60e51b81526004016104b390611dd5565b3360005b8451811015610dee57838181518110610d7157610d71611ce2565b6020026020010151600080878481518110610d8e57610d8e611ce2565b602002602001015181526020019081526020016000206000886001600160a01b03166001600160a01b031681526020019081526020016000206000828254610dd69190611d7c565b90915550819050610de681611d0e565b915050610d56565b50846001600160a01b031660006001600160a01b0316826001600160a01b031660008051602061207f8339815191528787604051610e2d929190611e1d565b60405180910390a4610706816000878787876113b8565b8151835114610e655760405162461bcd60e51b81526004016104b390611dd5565b6001600160a01b038416610e8b5760405162461bcd60e51b81526004016104b390611e42565b3360005b8451811015610f72576000858281518110610eac57610eac611ce2565b602002602001015190506000858381518110610eca57610eca611ce2565b602090810291909101810151600084815280835260408082206001600160a01b038e168352909352919091205490915081811015610f1a5760405162461bcd60e51b81526004016104b390611e87565b6000838152602081815260408083206001600160a01b038e8116855292528083208585039055908b16825281208054849290610f57908490611d7c565b9250508190555050505080610f6b90611d0e565b9050610e8f565b50846001600160a01b0316866001600160a01b0316826001600160a01b031660008051602061207f8339815191528787604051610fb0929190611e1d565b60405180910390a4610fc68187878787876113b8565b505050505050565b600380546001600160a01b038381166001600160a01b0319831681179093556040519116919082907f8be0079c531659141344cd1fd0a4f28419497f9722a3daafe3b4186f6b6457e090600090a35050565b816001600160a01b0316836001600160a01b0316036110935760405162461bcd60e51b815260206004820152602960248201527f455243313135353a2073657474696e6720617070726f76616c20737461747573604482015268103337b91039b2b63360b91b60648201526084016104b3565b6001600160a01b03838116600081815260016020908152604080832094871680845294825291829020805460ff191686151590811790915591519182527f17307eab39ab6107e8899845ad3d59bd9653f200f220920489ca2b5937696c31910160405180910390a3505050565b6001600160a01b0384166111265760405162461bcd60e51b81526004016104b390611e42565b33611136818787610c848861120b565b6000848152602081815260408083206001600160a01b038a168452909152902054838110156111775760405162461bcd60e51b81526004016104b390611e87565b6000858152602081815260408083206001600160a01b038b81168552925280832087850390559088168252812080548692906111b4908490611d7c565b909155505060408051868152602081018690526001600160a01b03808916928a8216929186169160008051602061209f833981519152910160405180910390a4611202828888888888611256565b50505050505050565b6040805160018082528183019092526060916000919060208083019080368337019050509050828160008151811061124557611245611ce2565b602090810291909101015292915050565b611268846001600160a01b031661147a565b15610fc65760405163f23a6e6160e01b81526001600160a01b0385169063f23a6e61906112a19089908990889088908890600401611ed1565b6020604051808303816000875af19250505080156112dc575060408051601f3d908101601f191682019092526112d991810190611f16565b60015b611388576112e8611f33565b806308c379a00361132157506112fc611f4f565b806113075750611323565b8060405162461bcd60e51b81526004016104b391906116e1565b505b60405162461bcd60e51b815260206004820152603460248201527f455243313135353a207472616e7366657220746f206e6f6e20455243313135356044820152732932b1b2b4bb32b91034b6b83632b6b2b73a32b960611b60648201526084016104b3565b6001600160e01b0319811663f23a6e6160e01b146112025760405162461bcd60e51b81526004016104b390611fd8565b6113ca846001600160a01b031661147a565b15610fc65760405163bc197c8160e01b81526001600160a01b0385169063bc197c81906114039089908990889088908890600401612020565b6020604051808303816000875af192505050801561143e575060408051601f3d908101601f1916820190925261143b91810190611f16565b60015b61144a576112e8611f33565b6001600160e01b0319811663bc197c8160e01b146112025760405162461bcd60e51b81526004016104b390611fd8565b6001600160a01b03163b151590565b82805461149590611bd2565b90600052602060002090601f0160209004810192826114b757600085556114fd565b82601f106114d057805160ff19168380011785556114fd565b828001600101855582156114fd579182015b828111156114fd5782518255916020019190600101906114e2565b5061150992915061150d565b5090565b5b80821115611509576000815560010161150e565b80356001600160a01b038116811461153957600080fd5b919050565b6000806040838503121561155157600080fd5b61155a83611522565b946020939093013593505050565b6001600160e01b03198116811461056c57600080fd5b60006020828403121561159057600080fd5b813561159b81611568565b9392505050565b634e487b7160e01b600052604160045260246000fd5b601f8201601f191681016001600160401b03811182821017156115dd576115dd6115a2565b6040525050565b60006001600160401b038311156115fd576115fd6115a2565b604051611614601f8501601f1916602001826115b8565b80915083815284848401111561162957600080fd5b83836020830137600060208583010152509392505050565b60006020828403121561165357600080fd5b81356001600160401b0381111561166957600080fd5b8201601f8101841361167a57600080fd5b610c45848235602084016115e4565b60005b838110156116a457818101518382015260200161168c565b838111156106705750506000910152565b600081518084526116cd816020860160208601611689565b601f01601f19169290920160200192915050565b60208152600061159b60208301846116b5565b60006020828403121561170657600080fd5b5035919050565b60008060006060848603121561172257600080fd5b61172b84611522565b95602085013595506040909401359392505050565b60006001600160401b03821115611759576117596115a2565b5060051b60200190565b600082601f83011261177457600080fd5b8135602061178182611740565b60405161178e82826115b8565b83815260059390931b85018201928281019150868411156117ae57600080fd5b8286015b848110156117c957803583529183019183016117b2565b509695505050505050565b600082601f8301126117e557600080fd5b61159b838335602085016115e4565b6000806000806080858703121561180a57600080fd5b61181385611522565b935060208501356001600160401b038082111561182f57600080fd5b61183b88838901611763565b9450604087013591508082111561185157600080fd5b61185d88838901611763565b9350606087013591508082111561187357600080fd5b50611880878288016117d4565b91505092959194509250565b600080600080600060a086880312156118a457600080fd5b6118ad86611522565b94506118bb60208701611522565b935060408601356001600160401b03808211156118d757600080fd5b6118e389838a01611763565b945060608801359150808211156118f957600080fd5b61190589838a01611763565b9350608088013591508082111561191b57600080fd5b50611928888289016117d4565b9150509295509295909350565b6000806040838503121561194857600080fd5b82356001600160401b038082111561195f57600080fd5b818501915085601f83011261197357600080fd5b8135602061198082611740565b60405161198d82826115b8565b83815260059390931b85018201928281019150898411156119ad57600080fd5b948201945b838610156119d2576119c386611522565b825294820194908201906119b2565b965050860135925050808211156119e857600080fd5b506119f585828601611763565b9150509250929050565b600081518084526020808501945080840160005b83811015611a2f57815187529582019590820190600101611a13565b509495945050505050565b60208152600061159b60208301846119ff565b60008060408385031215611a6057600080fd5b611a6983611522565b915060208301358015158114611a7e57600080fd5b809150509250929050565b6000602080830181845280855180835260408601915060408160051b870101925083870160005b82811015611ade57603f19888603018452611acc8583516116b5565b94509285019290850190600101611ab0565b5092979650505050505050565b60008060408385031215611afe57600080fd5b611b0783611522565b9150611b1560208401611522565b90509250929050565b600080600080600060a08688031215611b3657600080fd5b611b3f86611522565b9450611b4d60208701611522565b9350604086013592506060860135915060808601356001600160401b03811115611b7657600080fd5b611928888289016117d4565b600060208284031215611b9457600080fd5b61159b82611522565b6020808252818101527f4f776e61626c653a2063616c6c6572206973206e6f7420746865206f776e6572604082015260600190565b600181811c90821680611be657607f821691505b602082108103611c0657634e487b7160e01b600052602260045260246000fd5b50919050565b60008151611c1e818560208601611689565b9290920192915050565b600080845481600182811c915080831680611c4457607f831692505b60208084108203611c6357634e487b7160e01b86526022600452602486fd5b818015611c775760018114611c8857611cb5565b60ff19861689528489019650611cb5565b60008b81526020902060005b86811015611cad5781548b820152908501908301611c94565b505084890196505b505050505050611cd9611cc88286611c0c565b64173539b7b760d91b815260050190565b95945050505050565b634e487b7160e01b600052603260045260246000fd5b634e487b7160e01b600052601160045260246000fd5b600060018201611d2057611d20611cf8565b5060010190565b634e487b7160e01b600052601260045260246000fd5b600082611d4c57611d4c611d27565b500490565b600082821015611d6357611d63611cf8565b500390565b600082611d7757611d77611d27565b500690565b60008219821115611d8f57611d8f611cf8565b500190565b60208082526021908201527f455243313135353a206d696e7420746f20746865207a65726f206164647265736040820152607360f81b606082015260800190565b60208082526028908201527f455243313135353a2069647320616e6420616d6f756e7473206c656e677468206040820152670dad2e6dac2e8c6d60c31b606082015260800190565b604081526000611e3060408301856119ff565b8281036020840152611cd981856119ff565b60208082526025908201527f455243313135353a207472616e7366657220746f20746865207a65726f206164604082015264647265737360d81b606082015260800190565b6020808252602a908201527f455243313135353a20696e73756666696369656e742062616c616e636520666f60408201526939103a3930b739b332b960b11b606082015260800190565b6001600160a01b03868116825285166020820152604081018490526060810183905260a060808201819052600090611f0b908301846116b5565b979650505050505050565b600060208284031215611f2857600080fd5b815161159b81611568565b600060033d1115611f4c5760046000803e5060005160e01c5b90565b600060443d1015611f5d5790565b6040516003193d81016004833e81513d6001600160401b038083116024840183101715611f8c57505050505090565b8285019150815181811115611fa45750505050505090565b843d8701016020828501011115611fbe5750505050505090565b611fcd602082860101876115b8565b509095945050505050565b60208082526028908201527f455243313135353a204552433131353552656365697665722072656a656374656040820152676420746f6b656e7360c01b606082015260800190565b6001600160a01b0386811682528516602082015260a06040820181905260009061204c908301866119ff565b828103606084015261205e81866119ff565b9050828103608084015261207281856116b5565b9897505050505050505056fe4a39dc06d4c0dbc64b70af90fd698a233a518aa5d07e595d983b8c0526c8f7fbc3d58168c5ae7397731d063d5bbf3d657854427343f4c083240f7aacaa2d0f62a2646970667358221220c8fbc4a92d2e1efa2a01296ae3db87e251f93a4e798ed999abd25b619fdf69ca64736f6c634300080d0033",
  "immutableReferences": {},
  "source": "// SPDX-License-Identifier: MIT\npragma solidity ^0.8.0;\n\nimport \"@openzeppelin/contracts/token/ERC1155/ERC1155.sol\";\nimport \"@openzeppelin/contracts/access/Ownable.sol\";\nimport \"@openzeppelin/contracts/token/ERC1155/ERC1155.sol\";\nimport \"@openzeppelin/contracts/utils/Strings.sol\";\n\ncontract EdgeNodeItems is ERC1155 , Ownable{\n    string[] public names; //string array of names\n    uint[] public ids; //uint array of ids\n    string public baseMetadataURI; //the token metadata URI\n    string public name; //the token mame\n    uint public mintFee = 0 wei; //mintfee, 0 by default. only used in mint function, not batch.\n   \n \n    mapping(string => uint) public nameToId; //name to id mapping\n    mapping(uint => string) public idToName; //id to name mapping\n\n    /*\n    constructor is executed when the factory contract calls its own deployERC1155 method\n    */\n    constructor(string memory _contractName, string memory _uri, string[] memory _names, uint[] memory _ids) ERC1155(_uri) {\n        names = _names;\n        ids = _ids;\n        createMapping();\n        setURI(_uri);\n        baseMetadataURI = _uri;\n        name = _contractName;\n        transferOwnership(tx.origin);\n    }   \n\n    /*\n    creates a mapping of strings to ids (i.e [\"one\",\"two\"], [1,2] - \"one\" maps to 1, vice versa.)\n    */\n    function createMapping() private {\n        for (uint id = 0; id < ids.length; id++) {\n            nameToId[names[id]] = ids[id];\n            idToName[ids[id]] = names[id];\n        }\n    }\n    /*\n    sets our URI and makes the ERC1155 OpenSea compatible\n    */\n    function uri(uint256 _tokenid) override public view returns (string memory) {\n        return string(\n            abi.encodePacked(\n                baseMetadataURI,\n                Strings.toString(_tokenid),\".json\"\n            )\n        );\n    }\n\n    function getNames() public view returns(string[] memory) {\n        return names;\n    }\n\n    /*\n    used to change metadata, only owner access\n    */\n    function setURI(string memory newuri) public onlyOwner {\n        _setURI(newuri);\n    }\n\n    /*\n    set a mint fee. only used for mint, not batch.\n    */\n    function setFee(uint _fee) public onlyOwner {\n        mintFee = _fee;\n    }\n\n    /*\n    mint(address account, uint _id, uint256 amount)\n\n    account - address to mint the token to\n    _id - the ID being minted\n    amount - amount of tokens to mint\n    */\n    function mint(address account, uint _id, uint256 amount) \n        public payable returns (uint)\n    {\n        require(msg.value == mintFee);\n        _mint(account, _id, amount, \"\");\n        return _id;\n    }\n\n    /*\n    mintBatch(address to, uint256[] memory _ids, uint256[] memory amounts, bytes memory data)\n\n    to - address to mint the token to\n    _ids - the IDs being minted\n    amounts - amount of tokens to mint given ID\n    bytes - additional field to pass data to function\n    */\n    function mintBatch(address to, uint256[] memory _ids, uint256[] memory amounts, bytes memory data)\n        public\n    {\n        _mintBatch(to, _ids, amounts, data);\n    }\n\n}",
  "sourcePath": "/home/dmacri/openzeppelin-contracts/contracts/EdgeNodeItems.sol",
  "compiler": {
    "name": "solc",
    "version": "0.8.13+commit.abaa5c0e.Emscripten.clang"
  },
  "schemaVersion": "3.4.6",
  "updatedAt": "2022-04-14T09:16:16.078Z",
  "networkType": "ethereum",
  "devdoc": {
    "kind": "dev",
    "methods": {
      "balanceOf(address,uint256)": {
        "details": "See {IERC1155-balanceOf}. Requirements: - `account` cannot be the zero address."
      },
      "balanceOfBatch(address[],uint256[])": {
        "details": "See {IERC1155-balanceOfBatch}. Requirements: - `accounts` and `ids` must have the same length."
      },
      "isApprovedForAll(address,address)": {
        "details": "See {IERC1155-isApprovedForAll}."
      },
      "owner()": {
        "details": "Returns the address of the current owner."
      },
      "renounceOwnership()": {
        "details": "Leaves the contract without owner. It will not be possible to call `onlyOwner` functions anymore. Can only be called by the current owner. NOTE: Renouncing ownership will leave the contract without an owner, thereby removing any functionality that is only available to the owner."
      },
      "safeBatchTransferFrom(address,address,uint256[],uint256[],bytes)": {
        "details": "See {IERC1155-safeBatchTransferFrom}."
      },
      "safeTransferFrom(address,address,uint256,uint256,bytes)": {
        "details": "See {IERC1155-safeTransferFrom}."
      },
      "setApprovalForAll(address,bool)": {
        "details": "See {IERC1155-setApprovalForAll}."
      },
      "supportsInterface(bytes4)": {
        "details": "See {IERC165-supportsInterface}."
      },
      "transferOwnership(address)": {
        "details": "Transfers ownership of the contract to a new account (`newOwner`). Can only be called by the current owner."
      }
    },
    "version": 1
  },
  "userdoc": {
    "kind": "user",
    "methods": {},
    "version": 1
  }
}