{
  "contractName": "FactoryERC1155",
  "abi": [
    {
      "anonymous": false,
      "inputs": [
        {
          "indexed": false,
          "internalType": "address",
          "name": "owner",
          "type": "address"
        },
        {
          "indexed": false,
          "internalType": "address",
          "name": "tokenContract",
          "type": "address"
        }
      ],
      "name": "ERC1155Created",
      "type": "event"
    },
    {
      "anonymous": false,
      "inputs": [
        {
          "indexed": false,
          "internalType": "address",
          "name": "owner",
          "type": "address"
        },
        {
          "indexed": false,
          "internalType": "address",
          "name": "tokenContract",
          "type": "address"
        },
        {
          "indexed": false,
          "internalType": "uint256",
          "name": "amount",
          "type": "uint256"
        }
      ],
      "name": "ERC1155Minted",
      "type": "event"
    },
    {
      "inputs": [
        {
          "internalType": "uint256",
          "name": "",
          "type": "uint256"
        }
      ],
      "name": "indexToContract",
      "outputs": [
        {
          "internalType": "address",
          "name": "",
          "type": "address"
        }
      ],
      "stateMutability": "view",
      "type": "function"
    },
    {
      "inputs": [
        {
          "internalType": "uint256",
          "name": "",
          "type": "uint256"
        }
      ],
      "name": "indexToOwner",
      "outputs": [
        {
          "internalType": "address",
          "name": "",
          "type": "address"
        }
      ],
      "stateMutability": "view",
      "type": "function"
    },
    {
      "inputs": [
        {
          "internalType": "uint256",
          "name": "",
          "type": "uint256"
        }
      ],
      "name": "tokens",
      "outputs": [
        {
          "internalType": "contract EdgeNodeItems",
          "name": "",
          "type": "address"
        }
      ],
      "stateMutability": "view",
      "type": "function"
    },
    {
      "inputs": [
        {
          "internalType": "string",
          "name": "_contractName",
          "type": "string"
        },
        {
          "internalType": "string",
          "name": "_uri",
          "type": "string"
        },
        {
          "internalType": "uint256[]",
          "name": "_ids",
          "type": "uint256[]"
        },
        {
          "internalType": "string[]",
          "name": "_names",
          "type": "string[]"
        }
      ],
      "name": "deployERC1155",
      "outputs": [
        {
          "internalType": "address",
          "name": "",
          "type": "address"
        }
      ],
      "stateMutability": "nonpayable",
      "type": "function"
    },
    {
      "inputs": [
        {
          "internalType": "uint256",
          "name": "_index",
          "type": "uint256"
        },
        {
          "internalType": "string",
          "name": "_name",
          "type": "string"
        },
        {
          "internalType": "enum UtilityFactoryERC1155.SensorTypes",
          "name": "_sensorTypes",
          "type": "uint8"
        },
        {
          "internalType": "uint256",
          "name": "amount",
          "type": "uint256"
        }
      ],
      "name": "mintERC1155WithSensorName",
      "outputs": [],
      "stateMutability": "nonpayable",
      "type": "function"
    }
  ],
  "bytecode": "0x608060405234801561001057600080fd5b506135ae806100206000396000f3fe60806040523480156200001157600080fd5b50600436106200005e5760003560e01c80634f64b2be14620000635780635673f0b81462000096578063ba535b8e14620000ad578063cd78aefb14620000d9578063e640e7d31462000105575b600080fd5b6200007a620000743660046200055e565b6200011e565b6040516001600160a01b03909116815260200160405180910390f35b6200007a620000a736600462000701565b62000149565b6200007a620000be3660046200055e565b6001602052600090815260409020546001600160a01b031681565b6200007a620000ea3660046200055e565b6002602052600090815260409020546001600160a01b031681565b6200011c6200011636600462000812565b620002a8565b005b600081815481106200012f57600080fd5b6000918252602090912001546001600160a01b0316905081565b600080858584866040516200015e9062000550565b6200016d949392919062000919565b604051809103906000f0801580156200018a573d6000803e3d6000fd5b5060008054600180820183558280527f290decd9548b62a8d60345a988386fc84ba6bc95484008f6362f93160ef3e56390910180546001600160a01b0319166001600160a01b03851617905581549293508392909190620001ed908390620009bd565b815260200190815260200160002060006101000a8154816001600160a01b0302191690836001600160a01b0316021790555032600260006001600080549050620002389190620009bd565b8152602080820192909252604090810160002080546001600160a01b0319166001600160a01b039485161790558051338152928416918301919091527f7192d7c1a7c7914e1e82105dd5dcd5bdf88dc7eb0c2899d498664be8f0e406c5910160405180910390a195945050505050565b60405163a67e3c3560e01b81526000907320b1a7ed8e2a22d4e4b6a5f4b6751ef62dfa90c09063f0752399908790839063a67e3c3590620002f09089908b90600401620009e3565b600060405180830381865afa1580156200030e573d6000803e3d6000fd5b505050506040513d6000823e601f3d908101601f1916820160405262000338919081019062000a25565b6040518363ffffffff1660e01b81526004016200035792919062000aa4565b602060405180830381865afa15801562000375573d6000803e3d6000fd5b505050506040513d601f19601f820116820180604052508101906200039b919062000abf565b905060008581548110620003b357620003b362000ad9565b6000918252602080832091909101548783526002909152604091829020549151630ab714fb60e11b81526001600160a01b039283166004820152602481018490526044810185905291169063156e29f6906064016020604051808303816000875af115801562000427573d6000803e3d6000fd5b505050506040513d601f19601f820116820180604052508101906200044d919062000abf565b507fe5935135c7f13720ede40cad8697b3295d1715ca8c2365a7aeefb65338ef23486000868154811062000485576200048562000ad9565b6000918252602091829020015460408051638da5cb5b60e01b815290516001600160a01b0390921692638da5cb5b926004808401938290030181865afa158015620004d4573d6000803e3d6000fd5b505050506040513d601f19601f82011682018060405250810190620004fa919062000aef565b6000878154811062000510576200051062000ad9565b60009182526020918290200154604080516001600160a01b0394851681529390911691830191909152810184905260600160405180910390a15050505050565b612a578062000b2283390190565b6000602082840312156200057157600080fd5b5035919050565b634e487b7160e01b600052604160045260246000fd5b604051601f8201601f191681016001600160401b0381118282101715620005b957620005b962000578565b604052919050565b60006001600160401b03821115620005dd57620005dd62000578565b50601f01601f191660200190565b600082601f830112620005fd57600080fd5b8135620006146200060e82620005c1565b6200058e565b8181528460208386010111156200062a57600080fd5b816020850160208301376000918101602001919091529392505050565b60006001600160401b0382111562000663576200066362000578565b5060051b60200190565b600082601f8301126200067f57600080fd5b81356020620006926200060e8362000647565b82815260059290921b84018101918181019086841115620006b257600080fd5b8286015b84811015620006f65780356001600160401b03811115620006d75760008081fd5b620006e78986838b0101620005eb565b845250918301918301620006b6565b509695505050505050565b600080600080608085870312156200071857600080fd5b84356001600160401b03808211156200073057600080fd5b6200073e88838901620005eb565b95506020915081870135818111156200075657600080fd5b6200076489828a01620005eb565b9550506040870135818111156200077a57600080fd5b8701601f810189136200078c57600080fd5b80356200079d6200060e8262000647565b81815260059190911b8201840190848101908b831115620007bd57600080fd5b928501925b82841015620007dd57833582529285019290850190620007c2565b96505050506060870135915080821115620007f757600080fd5b5062000806878288016200066d565b91505092959194509250565b600080600080608085870312156200082957600080fd5b8435935060208501356001600160401b038111156200084757600080fd5b6200085587828801620005eb565b9350506040850135600381106200086b57600080fd5b9396929550929360600135925050565b60005b83811015620008985781810151838201526020016200087e565b83811115620008a8576000848401525b50505050565b60008151808452620008c88160208601602086016200087b565b601f01601f19169290920160200192915050565b600081518084526020808501945080840160005b838110156200090e57815187529582019590820190600101620008f0565b509495945050505050565b6080815260006200092e6080830187620008ae565b602083820381850152620009438288620008ae565b915083820360408501528186518084528284019150828160051b85010183890160005b838110156200099857601f1987840301855262000985838351620008ae565b9486019492509085019060010162000966565b50508681036060880152620009ae8189620008dc565b9b9a5050505050505050505050565b600082821015620009de57634e487b7160e01b600052601160045260246000fd5b500390565b60006003841062000a0457634e487b7160e01b600052602160045260246000fd5b8382526040602083015262000a1d6040830184620008ae565b949350505050565b60006020828403121562000a3857600080fd5b81516001600160401b0381111562000a4f57600080fd5b8201601f8101841362000a6157600080fd5b805162000a726200060e82620005c1565b81815285602083850101111562000a8857600080fd5b62000a9b8260208301602086016200087b565b95945050505050565b82815260406020820152600062000a1d6040830184620008ae565b60006020828403121562000ad257600080fd5b5051919050565b634e487b7160e01b600052603260045260246000fd5b60006020828403121562000b0257600080fd5b81516001600160a01b038116811462000b1a57600080fd5b939250505056fe608060405260006008553480156200001657600080fd5b5060405162002a5738038062002a578339810160408190526200003991620006d1565b826200004581620000d3565b506200005133620000ec565b81516200006690600490602085019062000333565b5080516200007c90600590602084019062000397565b50620000876200013e565b620000928362000236565b8251620000a7906006906020860190620003e3565b508351620000bd906007906020870190620003e3565b50620000c9326200027e565b5050505062000953565b8051620000e8906002906020840190620003e3565b5050565b600380546001600160a01b038381166001600160a01b0319831681179093556040519116919082907f8be0079c531659141344cd1fd0a4f28419497f9722a3daafe3b4186f6b6457e090600090a35050565b60005b60055481101562000233576005818154811062000162576200016262000801565b906000526020600020015460096004838154811062000185576200018562000801565b906000526020600020016040516200019e919062000853565b908152604051908190036020019020556004805482908110620001c557620001c562000801565b90600052602060002001600a600060058481548110620001e957620001e962000801565b90600052602060002001548152602001908152602001600020908054620002109062000817565b6200021d9291906200045f565b50806200022a81620008f6565b91505062000141565b50565b336200024162000324565b6001600160a01b031614620002735760405162461bcd60e51b81526004016200026a906200091e565b60405180910390fd5b6200023381620000d3565b336200028962000324565b6001600160a01b031614620002b25760405162461bcd60e51b81526004016200026a906200091e565b6001600160a01b038116620003195760405162461bcd60e51b815260206004820152602660248201527f4f776e61626c653a206e6577206f776e657220697320746865207a65726f206160448201526564647265737360d01b60648201526084016200026a565b6200023381620000ec565b6003546001600160a01b031690565b82805482825590600052602060002090810192821562000385579160200282015b8281111562000385578251805162000374918491602090910190620003e3565b509160200191906001019062000354565b5062000393929150620004e3565b5090565b828054828255906000526020600020908101928215620003d5579160200282015b82811115620003d5578251825591602001919060010190620003b8565b506200039392915062000504565b828054620003f19062000817565b90600052602060002090601f016020900481019282620004155760008555620003d5565b82601f106200043057805160ff1916838001178555620003d5565b82800160010185558215620003d55791820182811115620003d5578251825591602001919060010190620003b8565b8280546200046d9062000817565b90600052602060002090601f016020900481019282620004915760008555620003d5565b82601f10620004a45780548555620003d5565b82800160010185558215620003d557600052602060002091601f016020900482015b82811115620003d5578254825591600101919060010190620004c6565b8082111562000393576000620004fa82826200051b565b50600101620004e3565b5b8082111562000393576000815560010162000505565b508054620005299062000817565b6000825580601f106200053a575050565b601f01602090049060005260206000209081019062000233919062000504565b634e487b7160e01b600052604160045260246000fd5b604051601f8201601f191681016001600160401b03811182821017156200059b576200059b6200055a565b604052919050565b600082601f830112620005b557600080fd5b81516001600160401b03811115620005d157620005d16200055a565b6020620005e7601f8301601f1916820162000570565b8281528582848701011115620005fc57600080fd5b60005b838110156200061c578581018301518282018401528201620005ff565b838111156200062e5760008385840101525b5095945050505050565b60006001600160401b038211156200065457620006546200055a565b5060051b60200190565b600082601f8301126200067057600080fd5b8151602062000689620006838362000638565b62000570565b82815260059290921b84018101918181019086841115620006a957600080fd5b8286015b84811015620006c65780518352918301918301620006ad565b509695505050505050565b60008060008060808587031215620006e857600080fd5b84516001600160401b03808211156200070057600080fd5b6200070e88838901620005a3565b95506020915081870151818111156200072657600080fd5b6200073489828a01620005a3565b9550506040870151818111156200074a57600080fd5b8701601f810189136200075c57600080fd5b80516200076d620006838262000638565b81815260059190911b8201840190848101908b8311156200078d57600080fd5b8584015b83811015620007ca57805186811115620007ab5760008081fd5b620007bb8e8983890101620005a3565b84525091860191860162000791565b5060608b0151909750945050505080821115620007e657600080fd5b50620007f5878288016200065e565b91505092959194509250565b634e487b7160e01b600052603260045260246000fd5b600181811c908216806200082c57607f821691505b6020821081036200084d57634e487b7160e01b600052602260045260246000fd5b50919050565b600080835481600182811c9150808316806200087057607f831692505b602080841082036200089057634e487b7160e01b86526022600452602486fd5b818015620008a75760018114620008b957620008e8565b60ff19861689528489019650620008e8565b60008a81526020902060005b86811015620008e05781548b820152908501908301620008c5565b505084890196505b509498975050505050505050565b6000600182016200091757634e487b7160e01b600052601160045260246000fd5b5060010190565b6020808252818101527f4f776e61626c653a2063616c6c6572206973206e6f7420746865206f776e6572604082015260600190565b6120f480620009636000396000f3fe60806040526004361061010f5760003560e01c8062fdd58e1461011457806301ffc9a71461014757806302fe53051461017757806306fdde03146101995780630e89341c146101bb57806313966db5146101db578063156e29f6146101f15780631f7fdffa146102045780632eb2c2d614610224578063364410b3146102445780634622ab03146102645780634e1273f4146102845780635b2bd79e146102b157806369fe0e2d146102c6578063715018a6146102e65780638da5cb5b146102fb578063a22cb46514610328578063cd838f0f14610348578063e985e9c51461036a578063f242432a146103b3578063f2fde38b146103d3578063f6d8f2cb146103f3578063fac333ac1461042b575b600080fd5b34801561012057600080fd5b5061013461012f36600461153e565b61044b565b6040519081526020015b60405180910390f35b34801561015357600080fd5b5061016761016236600461157e565b6104e2565b604051901515815260200161013e565b34801561018357600080fd5b50610197610192366004611641565b610534565b005b3480156101a557600080fd5b506101ae61056f565b60405161013e91906116e1565b3480156101c757600080fd5b506101ae6101d63660046116f4565b6105fd565b3480156101e757600080fd5b5061013460085481565b6101346101ff36600461170d565b610631565b34801561021057600080fd5b5061019761021f3660046117f4565b610664565b34801561023057600080fd5b5061019761023f36600461188c565b610676565b34801561025057600080fd5b506101ae61025f3660046116f4565b61070d565b34801561027057600080fd5b506101ae61027f3660046116f4565b610726565b34801561029057600080fd5b506102a461029f366004611935565b610751565b60405161013e9190611a3a565b3480156102bd57600080fd5b506101ae61087a565b3480156102d257600080fd5b506101976102e13660046116f4565b610887565b3480156102f257600080fd5b506101976108bb565b34801561030757600080fd5b506103106108f6565b6040516001600160a01b03909116815260200161013e565b34801561033457600080fd5b50610197610343366004611a4d565b610905565b34801561035457600080fd5b5061035d610914565b60405161013e9190611a89565b34801561037657600080fd5b50610167610385366004611aeb565b6001600160a01b03918216600090815260016020908152604080832093909416825291909152205460ff1690565b3480156103bf57600080fd5b506101976103ce366004611b1e565b6109ed565b3480156103df57600080fd5b506101976103ee366004611b82565b610a74565b3480156103ff57600080fd5b5061013461040e366004611641565b805160208183018101805160098252928201919093012091525481565b34801561043757600080fd5b506101346104463660046116f4565b610b11565b60006001600160a01b0383166104bc5760405162461bcd60e51b815260206004820152602b60248201527f455243313135353a2062616c616e636520717565727920666f7220746865207a60448201526a65726f206164647265737360a81b60648201526084015b60405180910390fd5b506000908152602081815260408083206001600160a01b03949094168352929052205490565b60006001600160e01b03198216636cdb3d1360e11b148061051357506001600160e01b031982166303a24d0760e21b145b8061052e57506301ffc9a760e01b6001600160e01b03198316145b92915050565b3361053d6108f6565b6001600160a01b0316146105635760405162461bcd60e51b81526004016104b390611b9d565b61056c81610b32565b50565b6007805461057c90611bd2565b80601f01602080910402602001604051908101604052809291908181526020018280546105a890611bd2565b80156105f55780601f106105ca576101008083540402835291602001916105f5565b820191906000526020600020905b8154815290600101906020018083116105d857829003601f168201915b505050505081565b6060600661060a83610b45565b60405160200161061b929190611c28565b6040516020818303038152906040529050919050565b6000600854341461064157600080fd5b61065c84848460405180602001604052806000815250610c4d565b509092915050565b61067084848484610d0b565b50505050565b6001600160a01b03851633148061069257506106928533610385565b6106f95760405162461bcd60e51b815260206004820152603260248201527f455243313135353a207472616e736665722063616c6c6572206973206e6f74206044820152711bdddb995c881b9bdc88185c1c1c9bdd995960721b60648201526084016104b3565b6107068585858585610e44565b5050505050565b600a602052600090815260409020805461057c90611bd2565b6004818154811061073657600080fd5b90600052602060002001600091509050805461057c90611bd2565b606081518351146107b65760405162461bcd60e51b815260206004820152602960248201527f455243313135353a206163636f756e747320616e6420696473206c656e677468604482015268040dad2e6dac2e8c6d60bb1b60648201526084016104b3565b600083516001600160401b038111156107d1576107d16115a2565b6040519080825280602002602001820160405280156107fa578160200160208202803683370190505b50905060005b84518110156108725761084585828151811061081e5761081e611ce2565b602002602001015185838151811061083857610838611ce2565b602002602001015161044b565b82828151811061085757610857611ce2565b602090810291909101015261086b81611d0e565b9050610800565b509392505050565b6006805461057c90611bd2565b336108906108f6565b6001600160a01b0316146108b65760405162461bcd60e51b81526004016104b390611b9d565b600855565b336108c46108f6565b6001600160a01b0316146108ea5760405162461bcd60e51b81526004016104b390611b9d565b6108f46000610fce565b565b6003546001600160a01b031690565b610910338383611020565b5050565b60606004805480602002602001604051908101604052809291908181526020016000905b828210156109e457838290600052602060002001805461095790611bd2565b80601f016020809104026020016040519081016040528092919081815260200182805461098390611bd2565b80156109d05780601f106109a5576101008083540402835291602001916109d0565b820191906000526020600020905b8154815290600101906020018083116109b357829003601f168201915b505050505081526020019060010190610938565b50505050905090565b6001600160a01b038516331480610a095750610a098533610385565b610a675760405162461bcd60e51b815260206004820152602960248201527f455243313135353a2063616c6c6572206973206e6f74206f776e6572206e6f7260448201526808185c1c1c9bdd995960ba1b60648201526084016104b3565b6107068585858585611100565b33610a7d6108f6565b6001600160a01b031614610aa35760405162461bcd60e51b81526004016104b390611b9d565b6001600160a01b038116610b085760405162461bcd60e51b815260206004820152602660248201527f4f776e61626c653a206e6577206f776e657220697320746865207a65726f206160448201526564647265737360d01b60648201526084016104b3565b61056c81610fce565b60058181548110610b2157600080fd5b600091825260209091200154905081565b8051610910906002906020840190611489565b606081600003610b6c5750506040805180820190915260018152600360fc1b602082015290565b8160005b8115610b965780610b8081611d0e565b9150610b8f9050600a83611d3d565b9150610b70565b6000816001600160401b03811115610bb057610bb06115a2565b6040519080825280601f01601f191660200182016040528015610bda576020820181803683370190505b5090505b8415610c4557610bef600183611d51565b9150610bfc600a86611d68565b610c07906030611d7c565b60f81b818381518110610c1c57610c1c611ce2565b60200101906001600160f81b031916908160001a905350610c3e600a86611d3d565b9450610bde565b949350505050565b6001600160a01b038416610c735760405162461bcd60e51b81526004016104b390611d94565b33610c8d81600087610c848861120b565b6107068861120b565b6000848152602081815260408083206001600160a01b038916845290915281208054859290610cbd908490611d7c565b909155505060408051858152602081018590526001600160a01b03808816926000929185169160008051602061209f833981519152910160405180910390a461070681600087878787611256565b6001600160a01b038416610d315760405162461bcd60e51b81526004016104b390611d94565b8151835114610d525760405162461bcd60e51b81526004016104b390611dd5565b3360005b8451811015610dee57838181518110610d7157610d71611ce2565b6020026020010151600080878481518110610d8e57610d8e611ce2565b602002602001015181526020019081526020016000206000886001600160a01b03166001600160a01b031681526020019081526020016000206000828254610dd69190611d7c565b90915550819050610de681611d0e565b915050610d56565b50846001600160a01b031660006001600160a01b0316826001600160a01b031660008051602061207f8339815191528787604051610e2d929190611e1d565b60405180910390a4610706816000878787876113b8565b8151835114610e655760405162461bcd60e51b81526004016104b390611dd5565b6001600160a01b038416610e8b5760405162461bcd60e51b81526004016104b390611e42565b3360005b8451811015610f72576000858281518110610eac57610eac611ce2565b602002602001015190506000858381518110610eca57610eca611ce2565b602090810291909101810151600084815280835260408082206001600160a01b038e168352909352919091205490915081811015610f1a5760405162461bcd60e51b81526004016104b390611e87565b6000838152602081815260408083206001600160a01b038e8116855292528083208585039055908b16825281208054849290610f57908490611d7c565b9250508190555050505080610f6b90611d0e565b9050610e8f565b50846001600160a01b0316866001600160a01b0316826001600160a01b031660008051602061207f8339815191528787604051610fb0929190611e1d565b60405180910390a4610fc68187878787876113b8565b505050505050565b600380546001600160a01b038381166001600160a01b0319831681179093556040519116919082907f8be0079c531659141344cd1fd0a4f28419497f9722a3daafe3b4186f6b6457e090600090a35050565b816001600160a01b0316836001600160a01b0316036110935760405162461bcd60e51b815260206004820152602960248201527f455243313135353a2073657474696e6720617070726f76616c20737461747573604482015268103337b91039b2b63360b91b60648201526084016104b3565b6001600160a01b03838116600081815260016020908152604080832094871680845294825291829020805460ff191686151590811790915591519182527f17307eab39ab6107e8899845ad3d59bd9653f200f220920489ca2b5937696c31910160405180910390a3505050565b6001600160a01b0384166111265760405162461bcd60e51b81526004016104b390611e42565b33611136818787610c848861120b565b6000848152602081815260408083206001600160a01b038a168452909152902054838110156111775760405162461bcd60e51b81526004016104b390611e87565b6000858152602081815260408083206001600160a01b038b81168552925280832087850390559088168252812080548692906111b4908490611d7c565b909155505060408051868152602081018690526001600160a01b03808916928a8216929186169160008051602061209f833981519152910160405180910390a4611202828888888888611256565b50505050505050565b6040805160018082528183019092526060916000919060208083019080368337019050509050828160008151811061124557611245611ce2565b602090810291909101015292915050565b611268846001600160a01b031661147a565b15610fc65760405163f23a6e6160e01b81526001600160a01b0385169063f23a6e61906112a19089908990889088908890600401611ed1565b6020604051808303816000875af19250505080156112dc575060408051601f3d908101601f191682019092526112d991810190611f16565b60015b611388576112e8611f33565b806308c379a00361132157506112fc611f4f565b806113075750611323565b8060405162461bcd60e51b81526004016104b391906116e1565b505b60405162461bcd60e51b815260206004820152603460248201527f455243313135353a207472616e7366657220746f206e6f6e20455243313135356044820152732932b1b2b4bb32b91034b6b83632b6b2b73a32b960611b60648201526084016104b3565b6001600160e01b0319811663f23a6e6160e01b146112025760405162461bcd60e51b81526004016104b390611fd8565b6113ca846001600160a01b031661147a565b15610fc65760405163bc197c8160e01b81526001600160a01b0385169063bc197c81906114039089908990889088908890600401612020565b6020604051808303816000875af192505050801561143e575060408051601f3d908101601f1916820190925261143b91810190611f16565b60015b61144a576112e8611f33565b6001600160e01b0319811663bc197c8160e01b146112025760405162461bcd60e51b81526004016104b390611fd8565b6001600160a01b03163b151590565b82805461149590611bd2565b90600052602060002090601f0160209004810192826114b757600085556114fd565b82601f106114d057805160ff19168380011785556114fd565b828001600101855582156114fd579182015b828111156114fd5782518255916020019190600101906114e2565b5061150992915061150d565b5090565b5b80821115611509576000815560010161150e565b80356001600160a01b038116811461153957600080fd5b919050565b6000806040838503121561155157600080fd5b61155a83611522565b946020939093013593505050565b6001600160e01b03198116811461056c57600080fd5b60006020828403121561159057600080fd5b813561159b81611568565b9392505050565b634e487b7160e01b600052604160045260246000fd5b601f8201601f191681016001600160401b03811182821017156115dd576115dd6115a2565b6040525050565b60006001600160401b038311156115fd576115fd6115a2565b604051611614601f8501601f1916602001826115b8565b80915083815284848401111561162957600080fd5b83836020830137600060208583010152509392505050565b60006020828403121561165357600080fd5b81356001600160401b0381111561166957600080fd5b8201601f8101841361167a57600080fd5b610c45848235602084016115e4565b60005b838110156116a457818101518382015260200161168c565b838111156106705750506000910152565b600081518084526116cd816020860160208601611689565b601f01601f19169290920160200192915050565b60208152600061159b60208301846116b5565b60006020828403121561170657600080fd5b5035919050565b60008060006060848603121561172257600080fd5b61172b84611522565b95602085013595506040909401359392505050565b60006001600160401b03821115611759576117596115a2565b5060051b60200190565b600082601f83011261177457600080fd5b8135602061178182611740565b60405161178e82826115b8565b83815260059390931b85018201928281019150868411156117ae57600080fd5b8286015b848110156117c957803583529183019183016117b2565b509695505050505050565b600082601f8301126117e557600080fd5b61159b838335602085016115e4565b6000806000806080858703121561180a57600080fd5b61181385611522565b935060208501356001600160401b038082111561182f57600080fd5b61183b88838901611763565b9450604087013591508082111561185157600080fd5b61185d88838901611763565b9350606087013591508082111561187357600080fd5b50611880878288016117d4565b91505092959194509250565b600080600080600060a086880312156118a457600080fd5b6118ad86611522565b94506118bb60208701611522565b935060408601356001600160401b03808211156118d757600080fd5b6118e389838a01611763565b945060608801359150808211156118f957600080fd5b61190589838a01611763565b9350608088013591508082111561191b57600080fd5b50611928888289016117d4565b9150509295509295909350565b6000806040838503121561194857600080fd5b82356001600160401b038082111561195f57600080fd5b818501915085601f83011261197357600080fd5b8135602061198082611740565b60405161198d82826115b8565b83815260059390931b85018201928281019150898411156119ad57600080fd5b948201945b838610156119d2576119c386611522565b825294820194908201906119b2565b965050860135925050808211156119e857600080fd5b506119f585828601611763565b9150509250929050565b600081518084526020808501945080840160005b83811015611a2f57815187529582019590820190600101611a13565b509495945050505050565b60208152600061159b60208301846119ff565b60008060408385031215611a6057600080fd5b611a6983611522565b915060208301358015158114611a7e57600080fd5b809150509250929050565b6000602080830181845280855180835260408601915060408160051b870101925083870160005b82811015611ade57603f19888603018452611acc8583516116b5565b94509285019290850190600101611ab0565b5092979650505050505050565b60008060408385031215611afe57600080fd5b611b0783611522565b9150611b1560208401611522565b90509250929050565b600080600080600060a08688031215611b3657600080fd5b611b3f86611522565b9450611b4d60208701611522565b9350604086013592506060860135915060808601356001600160401b03811115611b7657600080fd5b611928888289016117d4565b600060208284031215611b9457600080fd5b61159b82611522565b6020808252818101527f4f776e61626c653a2063616c6c6572206973206e6f7420746865206f776e6572604082015260600190565b600181811c90821680611be657607f821691505b602082108103611c0657634e487b7160e01b600052602260045260246000fd5b50919050565b60008151611c1e818560208601611689565b9290920192915050565b600080845481600182811c915080831680611c4457607f831692505b60208084108203611c6357634e487b7160e01b86526022600452602486fd5b818015611c775760018114611c8857611cb5565b60ff19861689528489019650611cb5565b60008b81526020902060005b86811015611cad5781548b820152908501908301611c94565b505084890196505b505050505050611cd9611cc88286611c0c565b64173539b7b760d91b815260050190565b95945050505050565b634e487b7160e01b600052603260045260246000fd5b634e487b7160e01b600052601160045260246000fd5b600060018201611d2057611d20611cf8565b5060010190565b634e487b7160e01b600052601260045260246000fd5b600082611d4c57611d4c611d27565b500490565b600082821015611d6357611d63611cf8565b500390565b600082611d7757611d77611d27565b500690565b60008219821115611d8f57611d8f611cf8565b500190565b60208082526021908201527f455243313135353a206d696e7420746f20746865207a65726f206164647265736040820152607360f81b606082015260800190565b60208082526028908201527f455243313135353a2069647320616e6420616d6f756e7473206c656e677468206040820152670dad2e6dac2e8c6d60c31b606082015260800190565b604081526000611e3060408301856119ff565b8281036020840152611cd981856119ff565b60208082526025908201527f455243313135353a207472616e7366657220746f20746865207a65726f206164604082015264647265737360d81b606082015260800190565b6020808252602a908201527f455243313135353a20696e73756666696369656e742062616c616e636520666f60408201526939103a3930b739b332b960b11b606082015260800190565b6001600160a01b03868116825285166020820152604081018490526060810183905260a060808201819052600090611f0b908301846116b5565b979650505050505050565b600060208284031215611f2857600080fd5b815161159b81611568565b600060033d1115611f4c5760046000803e5060005160e01c5b90565b600060443d1015611f5d5790565b6040516003193d81016004833e81513d6001600160401b038083116024840183101715611f8c57505050505090565b8285019150815181811115611fa45750505050505090565b843d8701016020828501011115611fbe5750505050505090565b611fcd602082860101876115b8565b509095945050505050565b60208082526028908201527f455243313135353a204552433131353552656365697665722072656a656374656040820152676420746f6b656e7360c01b606082015260800190565b6001600160a01b0386811682528516602082015260a06040820181905260009061204c908301866119ff565b828103606084015261205e81866119ff565b9050828103608084015261207281856116b5565b9897505050505050505056fe4a39dc06d4c0dbc64b70af90fd698a233a518aa5d07e595d983b8c0526c8f7fbc3d58168c5ae7397731d063d5bbf3d657854427343f4c083240f7aacaa2d0f62a2646970667358221220c8fbc4a92d2e1efa2a01296ae3db87e251f93a4e798ed999abd25b619fdf69ca64736f6c634300080d0033a264697066735822122018f267cf5d4cafb4e0e014c4544a510a7322dea49c9b92bdfab216f32a15f4e364736f6c634300080d0033",
  "immutableReferences": {},
  "source": "// SPDX-License-Identifier: MIT\n\npragma solidity ^0.8.4;\n\nimport \"./EdgeNodeItems.sol\";\nimport \"./UtilityFactoryERC1155.sol\";\n\ninterface  IUtilityFactoryERC1155{\n   function getSensorTypesEnumKeyByValue (UtilityFactoryERC1155.SensorTypes  _sensorTypes) external pure returns (string memory) ;\n   function getNameOfSensor(UtilityFactoryERC1155.SensorTypes _sensorTypes, string memory _name) external pure returns (string memory);\n   function getCountERC1155byIndex(uint256 _index, uint256 _id) external view returns (uint amount);\n   function getCountERC1155byName(uint256 _index, string calldata _name) external view returns (uint amount);\n   function getIdByName(uint _index, string memory _name) external view returns (uint);\n   function getNameById(uint _index, uint _id) external view returns (string memory);\n}\n\ncontract FactoryERC1155 {\n    EdgeNodeItems[] public tokens; //an array that contains different ERC1155 tokens deployed\n    mapping(uint256 => address) public indexToContract; //index to contract address mapping\n    mapping(uint256 => address) public indexToOwner; //index to ERC1155 owner \n    event ERC1155Created(address owner, address tokenContract); //emitted when ERC1155 token is deployed\n    event ERC1155Minted(address owner, address tokenContract, uint amount); //emmited when ERC1155 token is minted\n    address private constant UtilityFactoryERC1155ContractAddress = 0x20B1a7ED8e2a22d4E4b6a5F4b6751eF62dFa90C0;\n    /*\n    deployERC1155 - deploys a ERC1155 token with given parameters - returns deployed address\n    _contractName - name of our ERC1155 token\n    _uri - URI resolving to our hosted metadata\n    _ids - IDs the ERC1155 token should contain\n    _name - Names each ID should map to. Case-sensitive.\n    */\n    function deployERC1155(string memory _contractName, string memory _uri, uint[] memory _ids, string[] memory _names) public returns (address) {\n        EdgeNodeItems t = new EdgeNodeItems(_contractName, _uri, _names, _ids);\n        tokens.push(t);\n        indexToContract[tokens.length - 1] = address(t);\n        indexToOwner[tokens.length - 1] = tx.origin;\n        emit ERC1155Created(msg.sender,address(t));\n        return address(t);\n    }\n    /*\n    mintERC1155 - mints a ERC1155 token with given parameters\n\n    _index - index position in our tokens array - represents which ERC1155 you want to interact with\n    _name - Case-sensitive. Name of the token (this maps to the ID you created when deploying the token)\n    _amount - amount of tokens you wish to mint\n    */\n    function mintERC1155WithSensorName(uint _index, string memory _name,UtilityFactoryERC1155.SensorTypes _sensorTypes ,uint256 amount) public {\n        uint id = IUtilityFactoryERC1155(UtilityFactoryERC1155ContractAddress).getIdByName(_index,IUtilityFactoryERC1155(UtilityFactoryERC1155ContractAddress).getNameOfSensor(_sensorTypes,_name));\n        tokens[_index].mint(indexToOwner[_index], id, amount);\n        emit ERC1155Minted(tokens[_index].owner(), address(tokens[_index]), amount);\n    }\n}",
  "sourcePath": "/home/dmacri/openzeppelin-contracts/contracts/FactoryERC1155.sol",
  "compiler": {
    "name": "solc",
    "version": "0.8.13+commit.abaa5c0e.Emscripten.clang"
  },
  "schemaVersion": "3.4.6",
  "updatedAt": "2022-04-14T09:16:12.183Z",
  "devdoc": {
    "kind": "dev",
    "methods": {},
    "version": 1
  },
  "userdoc": {
    "kind": "user",
    "methods": {},
    "version": 1
  }
}