{
  "contractName": "UtilityFactoryERC1155",
  "abi": [
    {
      "inputs": [
        {
          "internalType": "uint256",
          "name": "",
          "type": "uint256"
        }
      ],
      "name": "indexToContract",
      "outputs": [
        {
          "internalType": "address",
          "name": "",
          "type": "address"
        }
      ],
      "stateMutability": "view",
      "type": "function"
    },
    {
      "inputs": [
        {
          "internalType": "uint256",
          "name": "",
          "type": "uint256"
        }
      ],
      "name": "indexToOwner",
      "outputs": [
        {
          "internalType": "address",
          "name": "",
          "type": "address"
        }
      ],
      "stateMutability": "view",
      "type": "function"
    },
    {
      "inputs": [
        {
          "internalType": "uint256",
          "name": "",
          "type": "uint256"
        }
      ],
      "name": "tokens",
      "outputs": [
        {
          "internalType": "contract EdgeNodeItems",
          "name": "",
          "type": "address"
        }
      ],
      "stateMutability": "view",
      "type": "function"
    },
    {
      "inputs": [
        {
          "internalType": "enum UtilityFactoryERC1155.SensorTypes",
          "name": "_sensorTypes",
          "type": "uint8"
        }
      ],
      "name": "getSensorTypesEnumKeyByValue",
      "outputs": [
        {
          "internalType": "string",
          "name": "",
          "type": "string"
        }
      ],
      "stateMutability": "pure",
      "type": "function"
    },
    {
      "inputs": [
        {
          "internalType": "enum UtilityFactoryERC1155.SensorTypes",
          "name": "_sensorTypes",
          "type": "uint8"
        },
        {
          "internalType": "string",
          "name": "_name",
          "type": "string"
        }
      ],
      "name": "getNameOfSensor",
      "outputs": [
        {
          "internalType": "string",
          "name": "",
          "type": "string"
        }
      ],
      "stateMutability": "pure",
      "type": "function"
    },
    {
      "inputs": [
        {
          "internalType": "uint256",
          "name": "_index",
          "type": "uint256"
        },
        {
          "internalType": "uint256",
          "name": "_id",
          "type": "uint256"
        }
      ],
      "name": "getCountERC1155byIndex",
      "outputs": [
        {
          "internalType": "uint256",
          "name": "amount",
          "type": "uint256"
        }
      ],
      "stateMutability": "view",
      "type": "function"
    },
    {
      "inputs": [
        {
          "internalType": "uint256",
          "name": "_index",
          "type": "uint256"
        },
        {
          "internalType": "string",
          "name": "_name",
          "type": "string"
        }
      ],
      "name": "getCountERC1155byName",
      "outputs": [
        {
          "internalType": "uint256",
          "name": "amount",
          "type": "uint256"
        }
      ],
      "stateMutability": "view",
      "type": "function"
    },
    {
      "inputs": [
        {
          "internalType": "uint256",
          "name": "_index",
          "type": "uint256"
        },
        {
          "internalType": "string",
          "name": "_name",
          "type": "string"
        }
      ],
      "name": "getIdByName",
      "outputs": [
        {
          "internalType": "uint256",
          "name": "",
          "type": "uint256"
        }
      ],
      "stateMutability": "view",
      "type": "function"
    },
    {
      "inputs": [
        {
          "internalType": "uint256",
          "name": "_index",
          "type": "uint256"
        },
        {
          "internalType": "uint256",
          "name": "_id",
          "type": "uint256"
        }
      ],
      "name": "getNameById",
      "outputs": [
        {
          "internalType": "string",
          "name": "",
          "type": "string"
        }
      ],
      "stateMutability": "view",
      "type": "function"
    },
    {
      "inputs": [
        {
          "internalType": "uint256",
          "name": "_index",
          "type": "uint256"
        },
        {
          "internalType": "uint256",
          "name": "_id",
          "type": "uint256"
        }
      ],
      "name": "getERC1155byIndexAndId",
      "outputs": [
        {
          "internalType": "address",
          "name": "_contract",
          "type": "address"
        },
        {
          "internalType": "address",
          "name": "_owner",
          "type": "address"
        },
        {
          "internalType": "string",
          "name": "_uri",
          "type": "string"
        },
        {
          "internalType": "uint256",
          "name": "supply",
          "type": "uint256"
        }
      ],
      "stateMutability": "view",
      "type": "function"
    }
  ],
  "bytecode": "0x608060405234801561001057600080fd5b50610b63806100206000396000f3fe608060405234801561001057600080fd5b506004361061008e5760003560e01c806316d839e3146100935780634f64b2be146100b957806351c8027b146100e457806388744682146100f75780639575feab1461011a578063a67e3c351461013a578063ba535b8e1461014d578063cd78aefb14610176578063f07523991461019f578063f190262a146101b2575b600080fd5b6100a66100a136600461072c565b6101c5565b6040519081526020015b60405180910390f35b6100cc6100c736600461074e565b61026b565b6040516001600160a01b0390911681526020016100b0565b6100a66100f2366004610767565b610295565b61010a61010536600461072c565b610381565b6040516100b0949392919061083e565b61012d61012836600461072c565b61051d565b6040516100b0919061087b565b61012d610148366004610965565b6105ac565b6100cc61015b36600461074e565b6001602052600090815260409020546001600160a01b031681565b6100cc61018436600461074e565b6002602052600090815260409020546001600160a01b031681565b6100a66101ad3660046109b2565b6105e0565b61012d6101c03660046109e2565b61062d565b60008083815481106101d9576101d96109fd565b60009182526020808320909101548583526002909152604091829020549151627eeac760e11b81526001600160a01b039182169262fdd58e92610223929116908690600401610a13565b602060405180830381865afa158015610240573d6000803e3d6000fd5b505050506040513d601f19601f820116820180604052508101906102649190610a2c565b9392505050565b6000818154811061027b57600080fd5b6000918252602090912001546001600160a01b0316905081565b6000806102d88585858080601f0160208091040260200160405190810160405280939291908181526020018383808284376000920191909152506105e092505050565b9050600085815481106102ed576102ed6109fd565b60009182526020808320909101548783526002909152604091829020549151627eeac760e11b81526001600160a01b039182169262fdd58e92610337929116908590600401610a13565b602060405180830381865afa158015610354573d6000803e3d6000fd5b505050506040513d601f19601f820116820180604052508101906103789190610a2c565b95945050505050565b60008060606000806000878154811061039c5761039c6109fd565b9060005260206000200160009054906101000a90046001600160a01b0316905080816001600160a01b0316638da5cb5b6040518163ffffffff1660e01b8152600401602060405180830381865afa1580156103fb573d6000803e3d6000fd5b505050506040513d601f19601f8201168201806040525081019061041f9190610a45565b6040516303a24d0760e21b8152600481018990526001600160a01b03841690630e89341c90602401600060405180830381865afa158015610464573d6000803e3d6000fd5b505050506040513d6000823e601f3d908101601f1916820160405261048c9190810190610a6e565b60008a81526002602052604090819020549051627eeac760e11b81526001600160a01b038681169262fdd58e926104cb92909116908d90600401610a13565b602060405180830381865afa1580156104e8573d6000803e3d6000fd5b505050506040513d601f19601f8201168201806040525081019061050c9190610a2c565b929a91995097509095509350505050565b606060008381548110610532576105326109fd565b60009182526020909120015460405163364410b360e01b8152600481018490526001600160a01b039091169063364410b390602401600060405180830381865afa158015610584573d6000803e3d6000fd5b505050506040513d6000823e601f3d908101601f191682016040526102649190810190610a6e565b60606105b78361062d565b826040516020016105c9929190610adb565b604051602081830303815290604052905092915050565b60008083815481106105f4576105f46109fd565b60009182526020909120015460405163f6d8f2cb60e01b81526001600160a01b039091169063f6d8f2cb9061022390859060040161087b565b606081600281111561064157610641610b17565b60000361066f57505060408051808201909152600b81526a54454d504552415455524560a81b602082015290565b81600281111561068157610681610b17565b6001036106ac57505060408051808201909152600881526748554d494449545960c01b602082015290565b8160028111156106be576106be610b17565b6002036106e9575050604080518082019091526008815267505245535355524560c01b602082015290565b60405162461bcd60e51b815260206004820152601460248201527314d95b9cdbdc881b9bdd081cdc1958da599a595960621b604482015260640160405180910390fd5b6000806040838503121561073f57600080fd5b50508035926020909101359150565b60006020828403121561076057600080fd5b5035919050565b60008060006040848603121561077c57600080fd5b8335925060208401356001600160401b038082111561079a57600080fd5b818601915086601f8301126107ae57600080fd5b8135818111156107bd57600080fd5b8760208285010111156107cf57600080fd5b6020830194508093505050509250925092565b60005b838110156107fd5781810151838201526020016107e5565b8381111561080c576000848401525b50505050565b6000815180845261082a8160208601602086016107e2565b601f01601f19169290920160200192915050565b6001600160a01b0385811682528416602082015260806040820181905260009061086a90830185610812565b905082606083015295945050505050565b6020815260006102646020830184610812565b80356003811061089d57600080fd5b919050565b634e487b7160e01b600052604160045260246000fd5b604051601f8201601f191681016001600160401b03811182821017156108e0576108e06108a2565b604052919050565b60006001600160401b03821115610901576109016108a2565b50601f01601f191660200190565b600082601f83011261092057600080fd5b813561093361092e826108e8565b6108b8565b81815284602083860101111561094857600080fd5b816020850160208301376000918101602001919091529392505050565b6000806040838503121561097857600080fd5b6109818361088e565b915060208301356001600160401b0381111561099c57600080fd5b6109a88582860161090f565b9150509250929050565b600080604083850312156109c557600080fd5b8235915060208301356001600160401b0381111561099c57600080fd5b6000602082840312156109f457600080fd5b6102648261088e565b634e487b7160e01b600052603260045260246000fd5b6001600160a01b03929092168252602082015260400190565b600060208284031215610a3e57600080fd5b5051919050565b600060208284031215610a5757600080fd5b81516001600160a01b038116811461026457600080fd5b600060208284031215610a8057600080fd5b81516001600160401b03811115610a9657600080fd5b8201601f81018413610aa757600080fd5b8051610ab561092e826108e8565b818152856020838501011115610aca57600080fd5b6103788260208301602086016107e2565b60008351610aed8184602088016107e2565b605f60f81b9083019081528351610b0b8160018401602088016107e2565b01600101949350505050565b634e487b7160e01b600052602160045260246000fdfea2646970667358221220092d469dc0e576e1e9aaeff83c00018818769d9a3d5e6534025890d4ea946a5264736f6c634300080d0033",
  "immutableReferences": {},
  "source": "// SPDX-License-Identifier: MIT\n\npragma solidity ^0.8.4;\n\nimport \"./EdgeNodeItems.sol\";\n\ncontract UtilityFactoryERC1155 {\n\n    enum SensorTypes {\n        TEMPERATURE,\n        HUMIDITY,\n        PRESSURE             \n    }\n      \n    EdgeNodeItems[] public tokens; //an array that contains different ERC1155 tokens deployed\n    mapping(uint256 => address) public indexToContract; //index to contract address mapping\n    mapping(uint256 => address) public indexToOwner; //index to ERC1155 owner \n\n   /*\n    Helper functions below retrieve contract data given an ID or name and index in the tokens array.\n    */\n    function getSensorTypesEnumKeyByValue (SensorTypes  _sensorTypes) public pure returns (string memory) {\n        if (SensorTypes.TEMPERATURE == _sensorTypes) return \"TEMPERATURE\";\n        if (SensorTypes.HUMIDITY == _sensorTypes) return \"HUMIDITY\";\n        if (SensorTypes.PRESSURE == _sensorTypes) return \"PRESSURE\";\n    revert(\"Sensor not specified\");\n    }\n    function getNameOfSensor(SensorTypes _sensorTypes, string memory _name) external pure returns (string memory) {\n        return string(abi.encodePacked(getSensorTypesEnumKeyByValue(_sensorTypes),'_',_name));\n    }\n\n    function getCountERC1155byIndex(uint256 _index, uint256 _id) public view returns (uint amount) {\n        return tokens[_index].balanceOf(indexToOwner[_index], _id);\n    }\n\n    function getCountERC1155byName(uint256 _index, string calldata _name) public view returns (uint amount) {\n        uint id = getIdByName(_index, _name);\n        return tokens[_index].balanceOf(indexToOwner[_index], id);\n    }\n\n    function getIdByName(uint _index, string memory _name) public view returns (uint) {\n        return tokens[_index].nameToId(_name);\n    }\n\n    function getNameById(uint _index, uint _id) public view returns (string memory) {\n        return tokens[_index].idToName(_id);\n    }\n    function getERC1155byIndexAndId(uint _index, uint _id)\n        public\n        view\n        returns (\n            address _contract,\n            address _owner,\n            string memory _uri,\n            uint supply\n        )\n    {\n        EdgeNodeItems token = tokens[_index];\n        return (address(token), token.owner(), token.uri(_id), token.balanceOf(indexToOwner[_index], _id));\n    }\n}",
  "sourcePath": "/home/dmacri/openzeppelin-contracts/contracts/UtilityFactoryERC1155.sol",
  "compiler": {
    "name": "solc",
    "version": "0.8.13+commit.abaa5c0e.Emscripten.clang"
  },
  "schemaVersion": "3.4.6",
  "updatedAt": "2022-04-14T09:16:12.197Z",
  "devdoc": {
    "kind": "dev",
    "methods": {},
    "version": 1
  },
  "userdoc": {
    "kind": "user",
    "methods": {},
    "version": 1
  }
}